{
    "contractName": "SupplyChain",
    "abi": [
        {
            "anonymous": false,
            "inputs": [
                {
                    "indexed": false,
                    "internalType": "uint256",
                    "name": "productId",
                    "type": "uint256"
                }
            ],
            "name": "TransferOwnership",
            "type": "event"
        },
        {
            "inputs": [
                {
                    "internalType": "uint256",
                    "name": "_uId",
                    "type": "uint256"
                },
                {
                    "internalType": "string",
                    "name": "_uname",
                    "type": "string"
                },
                {
                    "internalType": "string",
                    "name": "_pass",
                    "type": "string"
                },
                {
                    "internalType": "string",
                    "name": "_utype",
                    "type": "string"
                }
            ],
            "name": "AuthenticateParticipant",
            "outputs": [
                {
                    "internalType": "bool",
                    "name": "",
                    "type": "bool"
                }
            ],
            "stateMutability": "view",
            "type": "function"
        },
        {
            "inputs": [
                {
                    "internalType": "string",
                    "name": "_uname",
                    "type": "string"
                },
                {
                    "internalType": "string",
                    "name": "_pass",
                    "type": "string"
                },
                {
                    "internalType": "string",
                    "name": "_pType",
                    "type": "string"
                },
                {
                    "internalType": "address",
                    "name": "_pAddress",
                    "type": "address"
                }
            ],
            "name": "addParticipant",
            "outputs": [
                {
                    "internalType": "uint256",
                    "name": "",
                    "type": "uint256"
                }
            ],
            "stateMutability": "nonpayable",
            "type": "function"
        },
        {
            "inputs": [
                {
                    "internalType": "string",
                    "name": "_mNumber",
                    "type": "string"
                },
                {
                    "internalType": "string",
                    "name": "_pNumber",
                    "type": "string"
                },
                {
                    "internalType": "string",
                    "name": "_sNumber",
                    "type": "string"
                },
                {
                    "internalType": "uint32",
                    "name": "_cost",
                    "type": "uint32"
                },
                {
                    "internalType": "uint256",
                    "name": "_ownerId",
                    "type": "uint256"
                }
            ],
            "name": "addProduct",
            "outputs": [
                {
                    "internalType": "uint256",
                    "name": "",
                    "type": "uint256"
                }
            ],
            "stateMutability": "nonpayable",
            "type": "function"
        },
        {
            "inputs": [
                {
                    "internalType": "uint256",
                    "name": "_regId",
                    "type": "uint256"
                }
            ],
            "name": "getOwnership",
            "outputs": [
                {
                    "internalType": "uint256",
                    "name": "",
                    "type": "uint256"
                },
                {
                    "internalType": "uint256",
                    "name": "",
                    "type": "uint256"
                },
                {
                    "internalType": "address",
                    "name": "",
                    "type": "address"
                },
                {
                    "internalType": "uint32",
                    "name": "",
                    "type": "uint32"
                }
            ],
            "stateMutability": "view",
            "type": "function"
        },
        {
            "inputs": [
                {
                    "internalType": "uint256",
                    "name": "_participantId",
                    "type": "uint256"
                }
            ],
            "name": "getParticipant",
            "outputs": [
                {
                    "internalType": "string",
                    "name": "",
                    "type": "string"
                },
                {
                    "internalType": "address",
                    "name": "",
                    "type": "address"
                },
                {
                    "internalType": "string",
                    "name": "",
                    "type": "string"
                }
            ],
            "stateMutability": "view",
            "type": "function"
        },
        {
            "inputs": [
                {
                    "internalType": "uint256",
                    "name": "_productId",
                    "type": "uint256"
                }
            ],
            "name": "getProduct",
            "outputs": [
                {
                    "internalType": "string",
                    "name": "",
                    "type": "string"
                },
                {
                    "internalType": "string",
                    "name": "",
                    "type": "string"
                },
                {
                    "internalType": "string",
                    "name": "",
                    "type": "string"
                },
                {
                    "internalType": "uint32",
                    "name": "",
                    "type": "uint32"
                },
                {
                    "internalType": "address",
                    "name": "",
                    "type": "address"
                },
                {
                    "internalType": "uint32",
                    "name": "",
                    "type": "uint32"
                }
            ],
            "stateMutability": "view",
            "type": "function"
        },
        {
            "inputs": [
                {
                    "internalType": "uint256",
                    "name": "_productId",
                    "type": "uint256"
                }
            ],
            "name": "getProverance",
            "outputs": [
                {
                    "internalType": "uint256[]",
                    "name": "",
                    "type": "uint256[]"
                }
            ],
            "stateMutability": "view",
            "type": "function"
        },
        {
            "inputs": [
                {
                    "internalType": "uint256",
                    "name": "_userId1",
                    "type": "uint256"
                },
                {
                    "internalType": "uint256",
                    "name": "_userId2",
                    "type": "uint256"
                },
                {
                    "internalType": "uint256",
                    "name": "_productId",
                    "type": "uint256"
                }
            ],
            "name": "newOwner",
            "outputs": [
                {
                    "internalType": "bool",
                    "name": "",
                    "type": "bool"
                }
            ],
            "stateMutability": "nonpayable",
            "type": "function"
        },
        {
            "inputs": [],
            "name": "owner_id",
            "outputs": [
                {
                    "internalType": "uint256",
                    "name": "",
                    "type": "uint256"
                }
            ],
            "stateMutability": "view",
            "type": "function"
        },
        {
            "inputs": [
                {
                    "internalType": "uint256",
                    "name": "",
                    "type": "uint256"
                }
            ],
            "name": "ownerships",
            "outputs": [
                {
                    "internalType": "uint256",
                    "name": "productId",
                    "type": "uint256"
                },
                {
                    "internalType": "uint256",
                    "name": "ownerId",
                    "type": "uint256"
                },
                {
                    "internalType": "uint32",
                    "name": "txnTimeStamp",
                    "type": "uint32"
                },
                {
                    "internalType": "address",
                    "name": "ownerAddress",
                    "type": "address"
                }
            ],
            "stateMutability": "view",
            "type": "function"
        },
        {
            "inputs": [],
            "name": "participant_id",
            "outputs": [
                {
                    "internalType": "uint256",
                    "name": "",
                    "type": "uint256"
                }
            ],
            "stateMutability": "view",
            "type": "function"
        },
        {
            "inputs": [
                {
                    "internalType": "uint256",
                    "name": "",
                    "type": "uint256"
                }
            ],
            "name": "participants",
            "outputs": [
                {
                    "internalType": "string",
                    "name": "username",
                    "type": "string"
                },
                {
                    "internalType": "string",
                    "name": "password",
                    "type": "string"
                },
                {
                    "internalType": "string",
                    "name": "participantType",
                    "type": "string"
                },
                {
                    "internalType": "address",
                    "name": "participantAddress",
                    "type": "address"
                }
            ],
            "stateMutability": "view",
            "type": "function"
        },
        {
            "inputs": [
                {
                    "internalType": "uint256",
                    "name": "",
                    "type": "uint256"
                },
                {
                    "internalType": "uint256",
                    "name": "",
                    "type": "uint256"
                }
            ],
            "name": "productTrack",
            "outputs": [
                {
                    "internalType": "uint256",
                    "name": "",
                    "type": "uint256"
                }
            ],
            "stateMutability": "view",
            "type": "function"
        },
        {
            "inputs": [],
            "name": "product_id",
            "outputs": [
                {
                    "internalType": "uint256",
                    "name": "",
                    "type": "uint256"
                }
            ],
            "stateMutability": "view",
            "type": "function"
        },
        {
            "inputs": [
                {
                    "internalType": "uint256",
                    "name": "",
                    "type": "uint256"
                }
            ],
            "name": "products",
            "outputs": [
                {
                    "internalType": "string",
                    "name": "modelNumber",
                    "type": "string"
                },
                {
                    "internalType": "string",
                    "name": "partNumber",
                    "type": "string"
                },
                {
                    "internalType": "string",
                    "name": "serialNumber",
                    "type": "string"
                },
                {
                    "internalType": "uint32",
                    "name": "cost",
                    "type": "uint32"
                },
                {
                    "internalType": "address",
                    "name": "productOwner",
                    "type": "address"
                },
                {
                    "internalType": "uint32",
                    "name": "mfgTimeStamp",
                    "type": "uint32"
                }
            ],
            "stateMutability": "view",
            "type": "function"
        }
    ],
    "bytecode": "6080604052600080556000600155600060025534801561001e57600080fd5b50611d5d8061002e6000396000f3fe608060405234801561001057600080fd5b50600436106100f55760003560e01c8063704044dc11610097578063ca12987911610066578063ca1298791461030a578063ce488f341461031d578063eab0a4791461033d578063fc2da9101461034657600080fd5b8063704044dc1461022a5780637acc0b20146102c95780638f5ebf71146102ee578063b9db15b4146102f757600080fd5b80632761118f116100d35780632761118f1461015557806335c1d349146101685780633acefa201461018b5780634163501b1461020757600080fd5b8063126023d0146100fa57806313169bed146101205780631b9db2ef14610133575b600080fd5b61010d61010836600461170f565b61034f565b6040519081526020015b60405180910390f35b61010d61012e3660046117bb565b6104a5565b610146610141366004611862565b610546565b604051610117939291906118cb565b61010d610163366004611909565b610698565b61017b610176366004611862565b6106c9565b604051610117949392919061192b565b6101d2610199366004611862565b60056020526000908152604090208054600182015460029092015490919063ffffffff811690600160201b90046001600160a01b031684565b6040516101179493929190938452602084019290925263ffffffff1660408301526001600160a01b0316606082015260800190565b61021a61021536600461197e565b610892565b6040519015158152602001610117565b610294610238366004611862565b60009081526005602090815260409182902082516080810184528154808252600183015493820184905260029092015463ffffffff8116948201859052600160201b90046001600160a01b031660609091018190529193909290565b604051610117949392919093845260208401929092526001600160a01b0316604083015263ffffffff16606082015260800190565b6102dc6102d7366004611862565b6110e6565b604051610117969594939291906119aa565b61010d60025481565b6102dc610305366004611862565b6112c9565b61021a610318366004611a15565b6114d5565b61033061032b366004611862565b61160a565b6040516101179190611aa7565b61010d60005481565b61010d60015481565b600081815260046020908152604080832090517fcec9b8e63c868f2f7f30368f1583e7aa39ae80e163d57a859fa5a90244b28ac192610392926002019101611b25565b6040516020818303038152906040528051906020012003610498576000805481806103bc83611b9b565b9091555060008181526003602052604090209091506103db8882611c11565b5060008181526003602052604090206001016103f78782611c11565b5060008181526003602052604090206002016104138682611c11565b5060008181526003602081815260408084208301805463ffffffff19811663ffffffff8b811691821784558a88526004865293872086015496889052949093526001600160c01b03199092169092176001600160a01b03909316600160201b029290921763ffffffff60c01b1916600160c01b4290921691909102179055905061049c565b5060005b95945050505050565b60018054600091829190826104b983611b9b565b9091555060008181526004602052604090209091506104d88782611c11565b5060008181526004602052604090206001016104f48682611c11565b5060008181526004602052604090206002016105108582611c11565b50600081815260046020526040902060030180546001600160a01b0319166001600160a01b03851617905590505b949350505050565b60008181526004602052604081206003810154815460609392849290916001600160a01b03909116906002830190839061057f90611aeb565b80601f01602080910402602001604051908101604052809291908181526020018280546105ab90611aeb565b80156105f85780601f106105cd576101008083540402835291602001916105f8565b820191906000526020600020905b8154815290600101906020018083116105db57829003601f168201915b5050505050925080805461060b90611aeb565b80601f016020809104026020016040519081016040528092919081815260200182805461063790611aeb565b80156106845780601f1061065957610100808354040283529160200191610684565b820191906000526020600020905b81548152906001019060200180831161066757829003601f168201915b505050505090509250925092509193909250565b600660205281600052604060002081815481106106b457600080fd5b90600052602060002001600091509150505481565b6004602052600090815260409020805481906106e490611aeb565b80601f016020809104026020016040519081016040528092919081815260200182805461071090611aeb565b801561075d5780601f106107325761010080835404028352916020019161075d565b820191906000526020600020905b81548152906001019060200180831161074057829003601f168201915b50505050509080600101805461077290611aeb565b80601f016020809104026020016040519081016040528092919081815260200182805461079e90611aeb565b80156107eb5780601f106107c0576101008083540402835291602001916107eb565b820191906000526020600020905b8154815290600101906020018083116107ce57829003601f168201915b50505050509080600201805461080090611aeb565b80601f016020809104026020016040519081016040528092919081815260200182805461082c90611aeb565b80156108795780601f1061084e57610100808354040283529160200191610879565b820191906000526020600020905b81548152906001019060200180831161085c57829003601f168201915b505050600390930154919250506001600160a01b031684565b6000818152600360208190526040822001548290600160201b90046001600160a01b031633146108e25760405162461bcd60e51b8152602060048201526000602482015260440160405180910390fd5b60008581526004602052604080822081516080810190925280548290829061090990611aeb565b80601f016020809104026020016040519081016040528092919081815260200182805461093590611aeb565b80156109825780601f1061095757610100808354040283529160200191610982565b820191906000526020600020905b81548152906001019060200180831161096557829003601f168201915b5050505050815260200160018201805461099b90611aeb565b80601f01602080910402602001604051908101604052809291908181526020018280546109c790611aeb565b8015610a145780601f106109e957610100808354040283529160200191610a14565b820191906000526020600020905b8154815290600101906020018083116109f757829003601f168201915b50505050508152602001600282018054610a2d90611aeb565b80601f0160208091040260200160405190810160405280929190818152602001828054610a5990611aeb565b8015610aa65780601f10610a7b57610100808354040283529160200191610aa6565b820191906000526020600020905b815481529060010190602001808311610a8957829003601f168201915b5050509183525050600391909101546001600160a01b03166020918201526000878152600490915260408082208151608081019092528054939450919290919082908290610af390611aeb565b80601f0160208091040260200160405190810160405280929190818152602001828054610b1f90611aeb565b8015610b6c5780601f10610b4157610100808354040283529160200191610b6c565b820191906000526020600020905b815481529060010190602001808311610b4f57829003601f168201915b50505050508152602001600182018054610b8590611aeb565b80601f0160208091040260200160405190810160405280929190818152602001828054610bb190611aeb565b8015610bfe5780601f10610bd357610100808354040283529160200191610bfe565b820191906000526020600020905b815481529060010190602001808311610be157829003601f168201915b50505050508152602001600282018054610c1790611aeb565b80601f0160208091040260200160405190810160405280929190818152602001828054610c4390611aeb565b8015610c905780601f10610c6557610100808354040283529160200191610c90565b820191906000526020600020905b815481529060010190602001808311610c7357829003601f168201915b5050509183525050600391909101546001600160a01b0316602090910152600280549192506000919082610cc383611b9b565b9190505590507fcec9b8e63c868f2f7f30368f1583e7aa39ae80e163d57a859fa5a90244b28ac18360400151604051602001610cff9190611cd1565b60405160208183030381529060405280519060200120148015610d595750600080516020611d088339815191528260400151604051602001610d419190611cd1565b60405160208183030381529060405280519060200120145b15610e36576000818152600560209081526040808320898155606086015160028201805460019384018e905563ffffffff421663ffffffff196001600160a01b03909416600160201b029384166001600160c01b0319909216919091171790558a85526003808552838620018054640100000000600160c01b0319169091179055600683528184208054918201815584529190922001829055517f9ac2b9a804ed38f996a5f7f75e4d0461703cfb354997c05f76c9f5400384531690610e229088815260200190565b60405180910390a1600194505050506110de565b600080516020611d088339815191528360400151604051602001610e5a9190611cd1565b60405160208183030381529060405280519060200120148015610eb45750600080516020611d088339815191528260400151604051602001610e9c9190611cd1565b60405160208183030381529060405280519060200120145b15610f7d576000818152600560209081526040808320898155606086015160028201805460019384018e905563ffffffff421663ffffffff196001600160a01b03909416600160201b029384166001600160c01b0319909216919091171790558a85526003808552838620018054640100000000600160c01b0319169091179055600683528184208054918201815584529190922001829055517f9ac2b9a804ed38f996a5f7f75e4d0461703cfb354997c05f76c9f5400384531690610e229088815260200190565b600080516020611d088339815191528360400151604051602001610fa19190611cd1565b6040516020818303038152906040528051906020012014801561100d57507fc0878b4b16a78e8085cba0ca02fc0924f1492924058d153153a3f286e0fd70ff8260400151604051602001610ff59190611cd1565b60405160208183030381529060405280519060200120145b156110d6576000818152600560209081526040808320898155606086015160028201805460019384018e905563ffffffff421663ffffffff196001600160a01b03909416600160201b029384166001600160c01b0319909216919091171790558a85526003808552838620018054640100000000600160c01b0319169091179055600683528184208054918201815584529190922001829055517f9ac2b9a804ed38f996a5f7f75e4d0461703cfb354997c05f76c9f5400384531690610e229088815260200190565b600094505050505b509392505050565b60036020526000908152604090208054819061110190611aeb565b80601f016020809104026020016040519081016040528092919081815260200182805461112d90611aeb565b801561117a5780601f1061114f5761010080835404028352916020019161117a565b820191906000526020600020905b81548152906001019060200180831161115d57829003601f168201915b50505050509080600101805461118f90611aeb565b80601f01602080910402602001604051908101604052809291908181526020018280546111bb90611aeb565b80156112085780601f106111dd57610100808354040283529160200191611208565b820191906000526020600020905b8154815290600101906020018083116111eb57829003601f168201915b50505050509080600201805461121d90611aeb565b80601f016020809104026020016040519081016040528092919081815260200182805461124990611aeb565b80156112965780601f1061126b57610100808354040283529160200191611296565b820191906000526020600020905b81548152906001019060200180831161127957829003601f168201915b5050506003909301549192505063ffffffff808216916001600160a01b03600160201b82041691600160c01b9091041686565b6000818152600360208190526040822090810154815460609384938493919283928392916001830191600284019163ffffffff808316926001600160a01b03600160201b82041692600160c01b90910490911690869061132890611aeb565b80601f016020809104026020016040519081016040528092919081815260200182805461135490611aeb565b80156113a15780601f10611376576101008083540402835291602001916113a1565b820191906000526020600020905b81548152906001019060200180831161138457829003601f168201915b505050505095508480546113b490611aeb565b80601f01602080910402602001604051908101604052809291908181526020018280546113e090611aeb565b801561142d5780601f106114025761010080835404028352916020019161142d565b820191906000526020600020905b81548152906001019060200180831161141057829003601f168201915b5050505050945083805461144090611aeb565b80601f016020809104026020016040519081016040528092919081815260200182805461146c90611aeb565b80156114b95780601f1061148e576101008083540402835291602001916114b9565b820191906000526020600020905b81548152906001019060200180831161149c57829003601f168201915b5050505050935095509550955095509550955091939550919395565b6000816040516020016114e89190611ceb565b60408051601f19818403018152828252805160209182012060008981526004835292909220919261151d926002019101611b25565b60405160208183030381529060405280519060200120036115ff57836040516020016115499190611ceb565b60408051601f19818403018152828252805160209182012060008981526004835292909220919261157b929101611b25565b60405160208183030381529060405280519060200120036115ff57826040516020016115a79190611ceb565b60408051601f1981840301815282825280516020918201206000898152600483529290922091926115dc926001019101611b25565b60405160208183030381529060405280519060200120036115ff5750600161053e565b506000949350505050565b60008181526006602090815260409182902080548351818402810184019094528084526060939283018282801561166057602002820191906000526020600020905b81548152602001906001019080831161164c575b50505050509050919050565b634e487b7160e01b600052604160045260246000fd5b600082601f83011261169357600080fd5b813567ffffffffffffffff808211156116ae576116ae61166c565b604051601f8301601f19908116603f011681019082821181831017156116d6576116d661166c565b816040528381528660208588010111156116ef57600080fd5b836020870160208301376000602085830101528094505050505092915050565b600080600080600060a0868803121561172757600080fd5b853567ffffffffffffffff8082111561173f57600080fd5b61174b89838a01611682565b9650602088013591508082111561176157600080fd5b61176d89838a01611682565b9550604088013591508082111561178357600080fd5b5061179088828901611682565b935050606086013563ffffffff811681146117aa57600080fd5b949793965091946080013592915050565b600080600080608085870312156117d157600080fd5b843567ffffffffffffffff808211156117e957600080fd5b6117f588838901611682565b9550602087013591508082111561180b57600080fd5b61181788838901611682565b9450604087013591508082111561182d57600080fd5b5061183a87828801611682565b92505060608501356001600160a01b038116811461185757600080fd5b939692955090935050565b60006020828403121561187457600080fd5b5035919050565b60005b8381101561189657818101518382015260200161187e565b50506000910152565b600081518084526118b781602086016020860161187b565b601f01601f19169290920160200192915050565b6060815260006118de606083018661189f565b6001600160a01b038516602084015282810360408401526118ff818561189f565b9695505050505050565b6000806040838503121561191c57600080fd5b50508035926020909101359150565b60808152600061193e608083018761189f565b8281036020840152611950818761189f565b90508281036040840152611964818661189f565b91505060018060a01b038316606083015295945050505050565b60008060006060848603121561199357600080fd5b505081359360208301359350604090920135919050565b60c0815260006119bd60c083018961189f565b82810360208401526119cf818961189f565b905082810360408401526119e3818861189f565b63ffffffff96871660608501526001600160a01b039590951660808401525050921660a0909201919091529392505050565b60008060008060808587031215611a2b57600080fd5b84359350602085013567ffffffffffffffff80821115611a4a57600080fd5b611a5688838901611682565b94506040870135915080821115611a6c57600080fd5b611a7888838901611682565b93506060870135915080821115611a8e57600080fd5b50611a9b87828801611682565b91505092959194509250565b6020808252825182820181905260009190848201906040850190845b81811015611adf57835183529284019291840191600101611ac3565b50909695505050505050565b600181811c90821680611aff57607f821691505b602082108103611b1f57634e487b7160e01b600052602260045260246000fd5b50919050565b6000808354611b3381611aeb565b60018281168015611b4b5760018114611b6057611b8f565b60ff1984168752821515830287019450611b8f565b8760005260208060002060005b85811015611b865781548a820152908401908201611b6d565b50505082870194505b50929695505050505050565b600060018201611bbb57634e487b7160e01b600052601160045260246000fd5b5060010190565b601f821115611c0c57600081815260208120601f850160051c81016020861015611be95750805b601f850160051c820191505b81811015611c0857828155600101611bf5565b5050505b505050565b815167ffffffffffffffff811115611c2b57611c2b61166c565b611c3f81611c398454611aeb565b84611bc2565b602080601f831160018114611c745760008415611c5c5750858301515b600019600386901b1c1916600185901b178555611c08565b600085815260208120601f198616915b82811015611ca357888601518255948401946001909101908401611c84565b5085821015611cc15787850151600019600388901b60f8161c191681555b5050505050600190811b01905550565b602081526000611ce4602083018461189f565b9392505050565b60008251611cfd81846020870161187b565b919091019291505056feb77c7d6bf62fa24fc205955093030c58325cd2d3d35fb486ede7594fb99635f5a2646970667358221220b2a7b5994bcae2b1206f8a2081dbb62709f5364d74c7a4c912a7f0b3520574e964736f6c63430008110033",
    "sourcePath": "d:/SupplyChainDapp/contracts/SupplyChain.sol",
    "compiler": {
        "name": "solc",
        "version": "0.8.17+commit.8df45f5f"
    },
    "functionHashes": {
        "AuthenticateParticipant(uint256,string,string,string)": "ca129879",
        "addParticipant(string,string,string,address)": "13169bed",
        "addProduct(string,string,string,uint32,uint256)": "126023d0",
        "getOwnership(uint256)": "704044dc",
        "getParticipant(uint256)": "1b9db2ef",
        "getProduct(uint256)": "b9db15b4",
        "getProverance(uint256)": "ce488f34",
        "newOwner(uint256,uint256,uint256)": "4163501b",
        "owner_id()": "8f5ebf71",
        "ownerships(uint256)": "3acefa20",
        "participant_id()": "fc2da910",
        "participants(uint256)": "35c1d349",
        "productTrack(uint256,uint256)": "2761118f",
        "product_id()": "eab0a479",
        "products(uint256)": "7acc0b20"
    },
    "gasEstimates": {
        "creation": {
            "codeDepositCost": "1503400",
            "executionCost": "16586",
            "totalCost": "1519986"
        },
        "external": {
            "AuthenticateParticipant(uint256,string,string,string)": "infinite",
            "addParticipant(string,string,string,address)": "infinite",
            "addProduct(string,string,string,uint32,uint256)": "infinite",
            "getOwnership(uint256)": "6948",
            "getParticipant(uint256)": "infinite",
            "getProduct(uint256)": "infinite",
            "getProverance(uint256)": "infinite",
            "newOwner(uint256,uint256,uint256)": "infinite",
            "owner_id()": "2351",
            "ownerships(uint256)": "6881",
            "participant_id()": "2372",
            "participants(uint256)": "infinite",
            "productTrack(uint256,uint256)": "4677",
            "product_id()": "2350",
            "products(uint256)": "infinite"
        }
    }
}