{
  "contractName": "ERC20Token",
  "abi": [
    {
      "inputs": [
        {
          "internalType": "uint256",
          "name": "_initialSupply",
          "type": "uint256"
        },
        {
          "internalType": "string",
          "name": "_tokenName",
          "type": "string"
        },
        {
          "internalType": "uint256",
          "name": "_decimals",
          "type": "uint256"
        },
        {
          "internalType": "string",
          "name": "_tokenSymbol",
          "type": "string"
        }
      ],
      "stateMutability": "nonpayable",
      "type": "constructor"
    },
    {
      "anonymous": false,
      "inputs": [
        {
          "indexed": true,
          "internalType": "address",
          "name": "_from",
          "type": "address"
        },
        {
          "indexed": true,
          "internalType": "address",
          "name": "_spender",
          "type": "address"
        },
        {
          "indexed": false,
          "internalType": "uint256",
          "name": "_value",
          "type": "uint256"
        }
      ],
      "name": "Approval",
      "type": "event"
    },
    {
      "anonymous": false,
      "inputs": [
        {
          "indexed": true,
          "internalType": "address",
          "name": "_from",
          "type": "address"
        },
        {
          "indexed": true,
          "internalType": "address",
          "name": "_to",
          "type": "address"
        },
        {
          "indexed": false,
          "internalType": "uint256",
          "name": "_value",
          "type": "uint256"
        }
      ],
      "name": "Transfer",
      "type": "event"
    },
    {
      "inputs": [
        {
          "internalType": "address",
          "name": "",
          "type": "address"
        },
        {
          "internalType": "address",
          "name": "",
          "type": "address"
        }
      ],
      "name": "allowed",
      "outputs": [
        {
          "internalType": "uint256",
          "name": "",
          "type": "uint256"
        }
      ],
      "stateMutability": "view",
      "type": "function"
    },
    {
      "inputs": [
        {
          "internalType": "address",
          "name": "",
          "type": "address"
        }
      ],
      "name": "balance",
      "outputs": [
        {
          "internalType": "uint256",
          "name": "",
          "type": "uint256"
        }
      ],
      "stateMutability": "view",
      "type": "function"
    },
    {
      "inputs": [],
      "name": "decimals",
      "outputs": [
        {
          "internalType": "uint256",
          "name": "",
          "type": "uint256"
        }
      ],
      "stateMutability": "view",
      "type": "function"
    },
    {
      "inputs": [],
      "name": "name",
      "outputs": [
        {
          "internalType": "string",
          "name": "",
          "type": "string"
        }
      ],
      "stateMutability": "view",
      "type": "function"
    },
    {
      "inputs": [],
      "name": "symbol",
      "outputs": [
        {
          "internalType": "string",
          "name": "",
          "type": "string"
        }
      ],
      "stateMutability": "view",
      "type": "function"
    },
    {
      "inputs": [],
      "name": "totSupply",
      "outputs": [
        {
          "internalType": "uint256",
          "name": "",
          "type": "uint256"
        }
      ],
      "stateMutability": "view",
      "type": "function"
    },
    {
      "inputs": [],
      "name": "totalSupply",
      "outputs": [
        {
          "internalType": "uint256",
          "name": "",
          "type": "uint256"
        }
      ],
      "stateMutability": "view",
      "type": "function"
    },
    {
      "inputs": [
        {
          "internalType": "address",
          "name": "_to",
          "type": "address"
        },
        {
          "internalType": "uint256",
          "name": "_amount",
          "type": "uint256"
        }
      ],
      "name": "transfer",
      "outputs": [
        {
          "internalType": "bool",
          "name": "",
          "type": "bool"
        }
      ],
      "stateMutability": "nonpayable",
      "type": "function"
    },
    {
      "inputs": [
        {
          "internalType": "address",
          "name": "_account",
          "type": "address"
        }
      ],
      "name": "balanceOf",
      "outputs": [
        {
          "internalType": "uint256",
          "name": "",
          "type": "uint256"
        }
      ],
      "stateMutability": "view",
      "type": "function"
    },
    {
      "inputs": [
        {
          "internalType": "address",
          "name": "_from",
          "type": "address"
        },
        {
          "internalType": "address",
          "name": "_to",
          "type": "address"
        },
        {
          "internalType": "uint256",
          "name": "_amount",
          "type": "uint256"
        }
      ],
      "name": "transferFrom",
      "outputs": [
        {
          "internalType": "bool",
          "name": "",
          "type": "bool"
        }
      ],
      "stateMutability": "nonpayable",
      "type": "function"
    },
    {
      "inputs": [
        {
          "internalType": "address",
          "name": "_owner",
          "type": "address"
        },
        {
          "internalType": "address",
          "name": "_spender",
          "type": "address"
        }
      ],
      "name": "allowance",
      "outputs": [
        {
          "internalType": "uint256",
          "name": "",
          "type": "uint256"
        }
      ],
      "stateMutability": "view",
      "type": "function"
    },
    {
      "inputs": [
        {
          "internalType": "address",
          "name": "_spender",
          "type": "address"
        },
        {
          "internalType": "uint256",
          "name": "_amount",
          "type": "uint256"
        }
      ],
      "name": "approve",
      "outputs": [
        {
          "internalType": "bool",
          "name": "",
          "type": "bool"
        }
      ],
      "stateMutability": "nonpayable",
      "type": "function"
    }
  ],
  "bytecode": "0x60806040523480156200001157600080fd5b506040516200160e3803806200160e833981810160405281019062000037919062000285565b83600160003373ffffffffffffffffffffffffffffffffffffffff1673ffffffffffffffffffffffffffffffffffffffff1681526020019081526020016000208190555083600081905550826003908162000093919062000576565b50816005819055508060049081620000ac919062000576565b50505050506200065d565b6000604051905090565b600080fd5b600080fd5b6000819050919050565b620000e081620000cb565b8114620000ec57600080fd5b50565b6000815190506200010081620000d5565b92915050565b600080fd5b600080fd5b6000601f19601f8301169050919050565b7f4e487b7100000000000000000000000000000000000000000000000000000000600052604160045260246000fd5b6200015b8262000110565b810181811067ffffffffffffffff821117156200017d576200017c62000121565b5b80604052505050565b600062000192620000b7565b9050620001a0828262000150565b919050565b600067ffffffffffffffff821115620001c357620001c262000121565b5b620001ce8262000110565b9050602081019050919050565b60005b83811015620001fb578082015181840152602081019050620001de565b60008484015250505050565b60006200021e6200021884620001a5565b62000186565b9050828152602081018484840111156200023d576200023c6200010b565b5b6200024a848285620001db565b509392505050565b600082601f8301126200026a576200026962000106565b5b81516200027c84826020860162000207565b91505092915050565b60008060008060808587031215620002a257620002a1620000c1565b5b6000620002b287828801620000ef565b945050602085015167ffffffffffffffff811115620002d657620002d5620000c6565b5b620002e48782880162000252565b9350506040620002f787828801620000ef565b925050606085015167ffffffffffffffff8111156200031b576200031a620000c6565b5b620003298782880162000252565b91505092959194509250565b600081519050919050565b7f4e487b7100000000000000000000000000000000000000000000000000000000600052602260045260246000fd5b600060028204905060018216806200038857607f821691505b6020821081036200039e576200039d62000340565b5b50919050565b60008190508160005260206000209050919050565b60006020601f8301049050919050565b600082821b905092915050565b600060088302620004087fffffffffffffffffffffffffffffffffffffffffffffffffffffffffffffffff82620003c9565b620004148683620003c9565b95508019841693508086168417925050509392505050565b6000819050919050565b600062000457620004516200044b84620000cb565b6200042c565b620000cb565b9050919050565b6000819050919050565b620004738362000436565b6200048b62000482826200045e565b848454620003d6565b825550505050565b600090565b620004a262000493565b620004af81848462000468565b505050565b5b81811015620004d757620004cb60008262000498565b600181019050620004b5565b5050565b601f8211156200052657620004f081620003a4565b620004fb84620003b9565b810160208510156200050b578190505b620005236200051a85620003b9565b830182620004b4565b50505b505050565b600082821c905092915050565b60006200054b600019846008026200052b565b1980831691505092915050565b600062000566838362000538565b9150826002028217905092915050565b620005818262000335565b67ffffffffffffffff8111156200059d576200059c62000121565b5b620005a982546200036f565b620005b6828285620004db565b600060209050601f831160018114620005ee5760008415620005d9578287015190505b620005e5858262000558565b86555062000655565b601f198416620005fe86620003a4565b60005b82811015620006285784890151825560018201915060208501945060208101905062000601565b8683101562000648578489015162000644601f89168262000538565b8355505b6001600288020188555050505b505050505050565b610fa1806200066d6000396000f3fe608060405234801561001057600080fd5b50600436106100b45760003560e01c806370a082311161007157806370a08231146101a357806381fbf0a5146101d357806395d89b41146101f1578063a9059cbb1461020f578063dd62ed3e1461023f578063e3d670d71461026f576100b4565b806306fdde03146100b9578063095ea7b3146100d757806318160ddd1461010757806323b872dd14610125578063313ce567146101555780635c65816514610173575b600080fd5b6100c161029f565b6040516100ce9190610b5b565b60405180910390f35b6100f160048036038101906100ec9190610c16565b61032d565b6040516100fe9190610c71565b60405180910390f35b61010f61041f565b60405161011c9190610c9b565b60405180910390f35b61013f600480360381019061013a9190610cb6565b610428565b60405161014c9190610c71565b60405180910390f35b61015d610786565b60405161016a9190610c9b565b60405180910390f35b61018d60048036038101906101889190610d09565b61078c565b60405161019a9190610c9b565b60405180910390f35b6101bd60048036038101906101b89190610d49565b6107b1565b6040516101ca9190610c9b565b60405180910390f35b6101db6107fa565b6040516101e89190610c9b565b60405180910390f35b6101f9610800565b6040516102069190610b5b565b60405180910390f35b61022960048036038101906102249190610c16565b61088e565b6040516102369190610c71565b60405180910390f35b61025960048036038101906102549190610d09565b610a2c565b6040516102669190610c9b565b60405180910390f35b61028960048036038101906102849190610d49565b610ab3565b6040516102969190610c9b565b60405180910390f35b600380546102ac90610da5565b80601f01602080910402602001604051908101604052809291908181526020018280546102d890610da5565b80156103255780601f106102fa57610100808354040283529160200191610325565b820191906000526020600020905b81548152906001019060200180831161030857829003601f168201915b505050505081565b600081600260003373ffffffffffffffffffffffffffffffffffffffff1673ffffffffffffffffffffffffffffffffffffffff16815260200190815260200160002060008573ffffffffffffffffffffffffffffffffffffffff1673ffffffffffffffffffffffffffffffffffffffff168152602001908152602001600020819055508273ffffffffffffffffffffffffffffffffffffffff163373ffffffffffffffffffffffffffffffffffffffff167f8c5be1e5ebec7d5bd14f71427d1e84f3dd0314c0f7b2291e5b200ac8c7c3b9258460405161040d9190610c9b565b60405180910390a36001905092915050565b60008054905090565b600081600260008673ffffffffffffffffffffffffffffffffffffffff1673ffffffffffffffffffffffffffffffffffffffff16815260200190815260200160002060003373ffffffffffffffffffffffffffffffffffffffff1673ffffffffffffffffffffffffffffffffffffffff168152602001908152602001600020541180156104f3575081600160008673ffffffffffffffffffffffffffffffffffffffff1673ffffffffffffffffffffffffffffffffffffffff16815260200190815260200160002054115b610532576040517f08c379a000000000000000000000000000000000000000000000000000000000815260040161052990610e48565b60405180910390fd5b81600160008673ffffffffffffffffffffffffffffffffffffffff1673ffffffffffffffffffffffffffffffffffffffff16815260200190815260200160002060008282546105819190610e97565b9250508190555081600160008573ffffffffffffffffffffffffffffffffffffffff1673ffffffffffffffffffffffffffffffffffffffff16815260200190815260200160002060008282546105d79190610ecb565b925050819055507fffffffffffffffffffffffffffffffffffffffffffffffffffffffffffffffff600260008673ffffffffffffffffffffffffffffffffffffffff1673ffffffffffffffffffffffffffffffffffffffff16815260200190815260200160002060003373ffffffffffffffffffffffffffffffffffffffff1673ffffffffffffffffffffffffffffffffffffffff1681526020019081526020016000205410156107165781600260008673ffffffffffffffffffffffffffffffffffffffff1673ffffffffffffffffffffffffffffffffffffffff16815260200190815260200160002060003373ffffffffffffffffffffffffffffffffffffffff1673ffffffffffffffffffffffffffffffffffffffff168152602001908152602001600020600082825461070e9190610e97565b925050819055505b8273ffffffffffffffffffffffffffffffffffffffff168473ffffffffffffffffffffffffffffffffffffffff167fddf252ad1be2c89b69c2b068fc378daa952ba7f163c4a11628f55a4df523b3ef846040516107739190610c9b565b60405180910390a3600190509392505050565b60055481565b6002602052816000526040600020602052806000526040600020600091509150505481565b6000600160008373ffffffffffffffffffffffffffffffffffffffff1673ffffffffffffffffffffffffffffffffffffffff168152602001908152602001600020549050919050565b60005481565b6004805461080d90610da5565b80601f016020809104026020016040519081016040528092919081815260200182805461083990610da5565b80156108865780601f1061085b57610100808354040283529160200191610886565b820191906000526020600020905b81548152906001019060200180831161086957829003601f168201915b505050505081565b600081600160003373ffffffffffffffffffffffffffffffffffffffff1673ffffffffffffffffffffffffffffffffffffffff1681526020019081526020016000205411610911576040517f08c379a000000000000000000000000000000000000000000000000000000000815260040161090890610f4b565b60405180910390fd5b81600160003373ffffffffffffffffffffffffffffffffffffffff1673ffffffffffffffffffffffffffffffffffffffff16815260200190815260200160002060008282546109609190610e97565b9250508190555081600160008573ffffffffffffffffffffffffffffffffffffffff1673ffffffffffffffffffffffffffffffffffffffff16815260200190815260200160002060008282546109b69190610ecb565b925050819055508273ffffffffffffffffffffffffffffffffffffffff163373ffffffffffffffffffffffffffffffffffffffff167fddf252ad1be2c89b69c2b068fc378daa952ba7f163c4a11628f55a4df523b3ef84604051610a1a9190610c9b565b60405180910390a36001905092915050565b6000600260008473ffffffffffffffffffffffffffffffffffffffff1673ffffffffffffffffffffffffffffffffffffffff16815260200190815260200160002060008373ffffffffffffffffffffffffffffffffffffffff1673ffffffffffffffffffffffffffffffffffffffff16815260200190815260200160002054905092915050565b60016020528060005260406000206000915090505481565b600081519050919050565b600082825260208201905092915050565b60005b83811015610b05578082015181840152602081019050610aea565b60008484015250505050565b6000601f19601f8301169050919050565b6000610b2d82610acb565b610b378185610ad6565b9350610b47818560208601610ae7565b610b5081610b11565b840191505092915050565b60006020820190508181036000830152610b758184610b22565b905092915050565b600080fd5b600073ffffffffffffffffffffffffffffffffffffffff82169050919050565b6000610bad82610b82565b9050919050565b610bbd81610ba2565b8114610bc857600080fd5b50565b600081359050610bda81610bb4565b92915050565b6000819050919050565b610bf381610be0565b8114610bfe57600080fd5b50565b600081359050610c1081610bea565b92915050565b60008060408385031215610c2d57610c2c610b7d565b5b6000610c3b85828601610bcb565b9250506020610c4c85828601610c01565b9150509250929050565b60008115159050919050565b610c6b81610c56565b82525050565b6000602082019050610c866000830184610c62565b92915050565b610c9581610be0565b82525050565b6000602082019050610cb06000830184610c8c565b92915050565b600080600060608486031215610ccf57610cce610b7d565b5b6000610cdd86828701610bcb565b9350506020610cee86828701610bcb565b9250506040610cff86828701610c01565b9150509250925092565b60008060408385031215610d2057610d1f610b7d565b5b6000610d2e85828601610bcb565b9250506020610d3f85828601610bcb565b9150509250929050565b600060208284031215610d5f57610d5e610b7d565b5b6000610d6d84828501610bcb565b91505092915050565b7f4e487b7100000000000000000000000000000000000000000000000000000000600052602260045260246000fd5b60006002820490506001821680610dbd57607f821691505b602082108103610dd057610dcf610d76565b5b50919050565b7f496e73756666696369656e7420616c6c6f7765642066756e647320666f72207460008201527f72616e7366657220736f75726365200000000000000000000000000000000000602082015250565b6000610e32602f83610ad6565b9150610e3d82610dd6565b604082019050919050565b60006020820190508181036000830152610e6181610e25565b9050919050565b7f4e487b7100000000000000000000000000000000000000000000000000000000600052601160045260246000fd5b6000610ea282610be0565b9150610ead83610be0565b9250828203905081811115610ec557610ec4610e68565b5b92915050565b6000610ed682610be0565b9150610ee183610be0565b9250828201905080821115610ef957610ef8610e68565b5b92915050565b7f496e73756666696369656e742066756e647320696e206163636f756e74000000600082015250565b6000610f35601d83610ad6565b9150610f4082610eff565b602082019050919050565b60006020820190508181036000830152610f6481610f28565b905091905056fea26469706673582212205d968e9a921a82675b543a78933902055b29f2993416d5ab1b3535abc01cdd5564736f6c63430008110033",
  "immutableReferences": {},
  "source": "// SPDX-License-Identifier: MIT\r\npragma solidity ^0.8.13;\r\n\r\nimport \"./erc20Interface.sol\";\r\ncontract ERC20Token is IERC20 {\r\n    uint256 public totSupply;\r\n    uint256 constant private MAX_UINT256 = 2 ** 256 - 1;\r\n    mapping (address => uint256) public balance;\r\n    mapping (address => mapping(address => uint256)) public allowed;\r\n\r\n    string public name;\r\n    string public symbol;\r\n    uint256 public decimals;\r\n\r\n    constructor (\r\n        uint256 _initialSupply,\r\n        string memory _tokenName,\r\n        uint256 _decimals,\r\n        string memory _tokenSymbol\r\n    )   {\r\n        balance[msg.sender] = _initialSupply;\r\n        totSupply = _initialSupply;\r\n        name = _tokenName;\r\n        decimals = _decimals;\r\n        symbol = _tokenSymbol;\r\n    }\r\n    function totalSupply() external view returns (uint256) {\r\n        return totSupply;\r\n    }\r\n\r\n    function transfer(address _to, uint256 _amount) external returns (bool) {\r\n        require(balance[msg.sender] > _amount, \"Insufficient funds in account\");\r\n        balance[msg.sender] -= _amount;\r\n        balance[_to] += _amount;\r\n        emit Transfer(msg.sender, _to, _amount);\r\n        return true;\r\n    }\r\n\r\n    function balanceOf(address _account) external view returns (uint256) {\r\n        return balance[_account];\r\n    }\r\n\r\n    function transferFrom(address _from, address _to, uint256 _amount) external returns (bool) {\r\n        require(allowed[_from][msg.sender] > _amount && balance[_from] > _amount, \"Insufficient allowed funds for transfer source \");\r\n        balance[_from] -= _amount;\r\n        balance[_to] += _amount;\r\n        if(allowed[_from][msg.sender] < MAX_UINT256) {\r\n            allowed[_from][msg.sender] -= _amount;\r\n        }\r\n        emit Transfer(_from, _to, _amount);\r\n        return true;\r\n    }\r\n\r\n    function allowance(address _owner, address _spender) external view returns (uint256) {\r\n        return allowed[_owner][_spender];\r\n    }\r\n\r\n    function approve(address _spender, uint256 _amount) external returns (bool) {\r\n        allowed[msg.sender][_spender] = _amount;\r\n        emit Approval(msg.sender, _spender, _amount);\r\n        return true;\r\n    }\r\n\r\n}",
  "sourcePath": "D:\\SupplyChainDapp\\contracts\\erc20Token.sol",
  "compiler": {
    "name": "solc",
    "version": "0.8.17+commit.8df45f5f.Emscripten.clang"
  },
  "schemaVersion": "3.4.11",
  "updatedAt": "2022-12-08T15:26:35.777Z",
  "devdoc": {
    "kind": "dev",
    "methods": {},
    "version": 1
  },
  "userdoc": {
    "kind": "user",
    "methods": {},
    "version": 1
  }
}