{
  "contractName": "SupplyChain",
  "abi": [
    {
      "anonymous": false,
      "inputs": [
        {
          "indexed": false,
          "internalType": "uint256",
          "name": "productId",
          "type": "uint256"
        }
      ],
      "name": "TransferOwnership",
      "type": "event"
    },
    {
      "inputs": [],
      "name": "owner_id",
      "outputs": [
        {
          "internalType": "uint256",
          "name": "",
          "type": "uint256"
        }
      ],
      "stateMutability": "view",
      "type": "function",
      "constant": true
    },
    {
      "inputs": [
        {
          "internalType": "uint256",
          "name": "",
          "type": "uint256"
        }
      ],
      "name": "ownerships",
      "outputs": [
        {
          "internalType": "uint256",
          "name": "productId",
          "type": "uint256"
        },
        {
          "internalType": "uint256",
          "name": "ownerId",
          "type": "uint256"
        },
        {
          "internalType": "uint32",
          "name": "txnTimeStamp",
          "type": "uint32"
        },
        {
          "internalType": "address",
          "name": "ownerAddress",
          "type": "address"
        }
      ],
      "stateMutability": "view",
      "type": "function",
      "constant": true
    },
    {
      "inputs": [],
      "name": "participant_id",
      "outputs": [
        {
          "internalType": "uint256",
          "name": "",
          "type": "uint256"
        }
      ],
      "stateMutability": "view",
      "type": "function",
      "constant": true
    },
    {
      "inputs": [
        {
          "internalType": "uint256",
          "name": "",
          "type": "uint256"
        }
      ],
      "name": "participants",
      "outputs": [
        {
          "internalType": "string",
          "name": "username",
          "type": "string"
        },
        {
          "internalType": "string",
          "name": "password",
          "type": "string"
        },
        {
          "internalType": "string",
          "name": "participantType",
          "type": "string"
        },
        {
          "internalType": "address",
          "name": "participantAddress",
          "type": "address"
        }
      ],
      "stateMutability": "view",
      "type": "function",
      "constant": true
    },
    {
      "inputs": [
        {
          "internalType": "uint256",
          "name": "",
          "type": "uint256"
        },
        {
          "internalType": "uint256",
          "name": "",
          "type": "uint256"
        }
      ],
      "name": "productTrack",
      "outputs": [
        {
          "internalType": "uint256",
          "name": "",
          "type": "uint256"
        }
      ],
      "stateMutability": "view",
      "type": "function",
      "constant": true
    },
    {
      "inputs": [],
      "name": "product_id",
      "outputs": [
        {
          "internalType": "uint256",
          "name": "",
          "type": "uint256"
        }
      ],
      "stateMutability": "view",
      "type": "function",
      "constant": true
    },
    {
      "inputs": [
        {
          "internalType": "uint256",
          "name": "",
          "type": "uint256"
        }
      ],
      "name": "products",
      "outputs": [
        {
          "internalType": "string",
          "name": "modelNumber",
          "type": "string"
        },
        {
          "internalType": "string",
          "name": "partNumber",
          "type": "string"
        },
        {
          "internalType": "string",
          "name": "serialNumber",
          "type": "string"
        },
        {
          "internalType": "uint32",
          "name": "cost",
          "type": "uint32"
        },
        {
          "internalType": "address",
          "name": "productOwner",
          "type": "address"
        },
        {
          "internalType": "uint32",
          "name": "mfgTimeStamp",
          "type": "uint32"
        }
      ],
      "stateMutability": "view",
      "type": "function",
      "constant": true
    },
    {
      "inputs": [
        {
          "internalType": "string",
          "name": "_uname",
          "type": "string"
        },
        {
          "internalType": "string",
          "name": "_pass",
          "type": "string"
        },
        {
          "internalType": "string",
          "name": "_pType",
          "type": "string"
        },
        {
          "internalType": "address",
          "name": "_pAddress",
          "type": "address"
        }
      ],
      "name": "addParticipant",
      "outputs": [
        {
          "internalType": "uint256",
          "name": "",
          "type": "uint256"
        }
      ],
      "stateMutability": "nonpayable",
      "type": "function"
    },
    {
      "inputs": [
        {
          "internalType": "uint256",
          "name": "_participantId",
          "type": "uint256"
        }
      ],
      "name": "getParticipant",
      "outputs": [
        {
          "internalType": "string",
          "name": "",
          "type": "string"
        },
        {
          "internalType": "address",
          "name": "",
          "type": "address"
        },
        {
          "internalType": "string",
          "name": "",
          "type": "string"
        }
      ],
      "stateMutability": "view",
      "type": "function",
      "constant": true
    },
    {
      "inputs": [
        {
          "internalType": "string",
          "name": "_mNumber",
          "type": "string"
        },
        {
          "internalType": "string",
          "name": "_pNumber",
          "type": "string"
        },
        {
          "internalType": "string",
          "name": "_sNumber",
          "type": "string"
        },
        {
          "internalType": "uint32",
          "name": "_cost",
          "type": "uint32"
        },
        {
          "internalType": "uint256",
          "name": "_ownerId",
          "type": "uint256"
        }
      ],
      "name": "addProduct",
      "outputs": [
        {
          "internalType": "uint256",
          "name": "",
          "type": "uint256"
        }
      ],
      "stateMutability": "nonpayable",
      "type": "function"
    },
    {
      "inputs": [
        {
          "internalType": "uint256",
          "name": "_productId",
          "type": "uint256"
        }
      ],
      "name": "getProduct",
      "outputs": [
        {
          "internalType": "string",
          "name": "",
          "type": "string"
        },
        {
          "internalType": "string",
          "name": "",
          "type": "string"
        },
        {
          "internalType": "string",
          "name": "",
          "type": "string"
        },
        {
          "internalType": "uint32",
          "name": "",
          "type": "uint32"
        },
        {
          "internalType": "address",
          "name": "",
          "type": "address"
        },
        {
          "internalType": "uint32",
          "name": "",
          "type": "uint32"
        }
      ],
      "stateMutability": "view",
      "type": "function",
      "constant": true
    },
    {
      "inputs": [
        {
          "internalType": "uint256",
          "name": "_userId1",
          "type": "uint256"
        },
        {
          "internalType": "uint256",
          "name": "_userId2",
          "type": "uint256"
        },
        {
          "internalType": "uint256",
          "name": "_productId",
          "type": "uint256"
        }
      ],
      "name": "newOwner",
      "outputs": [
        {
          "internalType": "bool",
          "name": "",
          "type": "bool"
        }
      ],
      "stateMutability": "nonpayable",
      "type": "function"
    },
    {
      "inputs": [
        {
          "internalType": "uint256",
          "name": "_productId",
          "type": "uint256"
        }
      ],
      "name": "getProverance",
      "outputs": [
        {
          "internalType": "uint256[]",
          "name": "",
          "type": "uint256[]"
        }
      ],
      "stateMutability": "view",
      "type": "function",
      "constant": true
    },
    {
      "inputs": [
        {
          "internalType": "uint256",
          "name": "_regId",
          "type": "uint256"
        }
      ],
      "name": "getOwnership",
      "outputs": [
        {
          "internalType": "uint256",
          "name": "",
          "type": "uint256"
        },
        {
          "internalType": "uint256",
          "name": "",
          "type": "uint256"
        },
        {
          "internalType": "address",
          "name": "",
          "type": "address"
        },
        {
          "internalType": "uint32",
          "name": "",
          "type": "uint32"
        }
      ],
      "stateMutability": "view",
      "type": "function",
      "constant": true
    },
    {
      "inputs": [
        {
          "internalType": "uint256",
          "name": "_uId",
          "type": "uint256"
        },
        {
          "internalType": "string",
          "name": "_uname",
          "type": "string"
        },
        {
          "internalType": "string",
          "name": "_pass",
          "type": "string"
        },
        {
          "internalType": "string",
          "name": "_utype",
          "type": "string"
        }
      ],
      "name": "AuthenticateParticipant",
      "outputs": [
        {
          "internalType": "bool",
          "name": "",
          "type": "bool"
        }
      ],
      "stateMutability": "view",
      "type": "function",
      "constant": true
    }
  ],
  "bytecode": "0x6080604052600080556000600155600060025534801561001e57600080fd5b50612b548061002e6000396000f3fe608060405234801561001057600080fd5b50600436106100f55760003560e01c8063704044dc11610097578063ca12987911610066578063ca1298791461030d578063ce488f341461033d578063eab0a4791461036d578063fc2da9101461038b576100f5565b8063704044dc146102525780637acc0b20146102855780638f5ebf71146102ba578063b9db15b4146102d8576100f5565b80632761118f116100d35780632761118f1461018c57806335c1d349146101bc5780633acefa20146101ef5780634163501b14610222576100f5565b8063126023d0146100fa57806313169bed1461012a5780631b9db2ef1461015a575b600080fd5b610114600480360381019061010f9190611f95565b6103a9565b6040516101219190612073565b60405180910390f35b610144600480360381019061013f91906120ec565b61059f565b6040516101519190612073565b60405180910390f35b610174600480360381019061016f91906121a7565b610688565b60405161018393929190612262565b60405180910390f35b6101a660048036038101906101a191906122a7565b610816565b6040516101b39190612073565b60405180910390f35b6101d660048036038101906101d191906121a7565b610847565b6040516101e694939291906122e7565b60405180910390f35b610209600480360381019061020491906121a7565b610a2f565b6040516102199493929190612350565b60405180910390f35b61023c60048036038101906102379190612395565b610a8f565b6040516102499190612403565b60405180910390f35b61026c600480360381019061026791906121a7565b611680565b60405161027c949392919061241e565b60405180910390f35b61029f600480360381019061029a91906121a7565b61175c565b6040516102b196959493929190612463565b60405180910390f35b6102c2611970565b6040516102cf9190612073565b60405180910390f35b6102f260048036038101906102ed91906121a7565b611976565b60405161030496959493929190612463565b60405180910390f35b610327600480360381019061032291906124d9565b611c00565b6040516103349190612403565b60405180910390f35b610357600480360381019061035291906121a7565b611d52565b6040516103649190612652565b60405180910390f35b610375611dbd565b6040516103829190612073565b60405180910390f35b610393611dc3565b6040516103a09190612073565b60405180910390f35b60007fcec9b8e63c868f2f7f30368f1583e7aa39ae80e163d57a859fa5a90244b28ac1600460008481526020019081526020016000206002016040516020016103f29190612777565b6040516020818303038152906040528051906020012003610591576000806000815480929190610421906127bd565b9190505590508660036000838152602001908152602001600020600001908161044a919061299c565b508560036000838152602001908152602001600020600101908161046e919061299c565b5084600360008381526020019081526020016000206002019081610492919061299c565b50836003600083815260200190815260200160002060030160006101000a81548163ffffffff021916908363ffffffff1602179055506004600084815260200190815260200160002060030160009054906101000a900473ffffffffffffffffffffffffffffffffffffffff166003600083815260200190815260200160002060030160046101000a81548173ffffffffffffffffffffffffffffffffffffffff021916908373ffffffffffffffffffffffffffffffffffffffff160217905550426003600083815260200190815260200160002060030160186101000a81548163ffffffff021916908363ffffffff16021790555080915050610596565b600090505b95945050505050565b600080600160008154809291906105b5906127bd565b919050559050856004600083815260200190815260200160002060000190816105de919061299c565b5084600460008381526020019081526020016000206001019081610602919061299c565b5083600460008381526020019081526020016000206002019081610626919061299c565b50826004600083815260200190815260200160002060030160006101000a81548173ffffffffffffffffffffffffffffffffffffffff021916908373ffffffffffffffffffffffffffffffffffffffff16021790555080915050949350505050565b606060006060600460008581526020019081526020016000206000016004600086815260200190815260200160002060030160009054906101000a900473ffffffffffffffffffffffffffffffffffffffff16600460008781526020019081526020016000206002018280546106fd906126a3565b80601f0160208091040260200160405190810160405280929190818152602001828054610729906126a3565b80156107765780601f1061074b57610100808354040283529160200191610776565b820191906000526020600020905b81548152906001019060200180831161075957829003601f168201915b50505050509250808054610789906126a3565b80601f01602080910402602001604051908101604052809291908181526020018280546107b5906126a3565b80156108025780601f106107d757610100808354040283529160200191610802565b820191906000526020600020905b8154815290600101906020018083116107e557829003601f168201915b505050505090509250925092509193909250565b6006602052816000526040600020818154811061083257600080fd5b90600052602060002001600091509150505481565b600460205280600052604060002060009150905080600001805461086a906126a3565b80601f0160208091040260200160405190810160405280929190818152602001828054610896906126a3565b80156108e35780601f106108b8576101008083540402835291602001916108e3565b820191906000526020600020905b8154815290600101906020018083116108c657829003601f168201915b5050505050908060010180546108f8906126a3565b80601f0160208091040260200160405190810160405280929190818152602001828054610924906126a3565b80156109715780601f1061094657610100808354040283529160200191610971565b820191906000526020600020905b81548152906001019060200180831161095457829003601f168201915b505050505090806002018054610986906126a3565b80601f01602080910402602001604051908101604052809291908181526020018280546109b2906126a3565b80156109ff5780601f106109d4576101008083540402835291602001916109ff565b820191906000526020600020905b8154815290600101906020018083116109e257829003601f168201915b5050505050908060030160009054906101000a900473ffffffffffffffffffffffffffffffffffffffff16905084565b60056020528060005260406000206000915090508060000154908060010154908060020160009054906101000a900463ffffffff16908060020160049054906101000a900473ffffffffffffffffffffffffffffffffffffffff16905084565b6000816003600082815260200190815260200160002060030160049054906101000a900473ffffffffffffffffffffffffffffffffffffffff1673ffffffffffffffffffffffffffffffffffffffff163373ffffffffffffffffffffffffffffffffffffffff1614610b36576040517f08c379a0000000000000000000000000000000000000000000000000000000008152600401610b2d90612a94565b60405180910390fd5b600060046000878152602001908152602001600020604051806080016040529081600082018054610b66906126a3565b80601f0160208091040260200160405190810160405280929190818152602001828054610b92906126a3565b8015610bdf5780601f10610bb457610100808354040283529160200191610bdf565b820191906000526020600020905b815481529060010190602001808311610bc257829003601f168201915b50505050508152602001600182018054610bf8906126a3565b80601f0160208091040260200160405190810160405280929190818152602001828054610c24906126a3565b8015610c715780601f10610c4657610100808354040283529160200191610c71565b820191906000526020600020905b815481529060010190602001808311610c5457829003601f168201915b50505050508152602001600282018054610c8a906126a3565b80601f0160208091040260200160405190810160405280929190818152602001828054610cb6906126a3565b8015610d035780601f10610cd857610100808354040283529160200191610d03565b820191906000526020600020905b815481529060010190602001808311610ce657829003601f168201915b505050505081526020016003820160009054906101000a900473ffffffffffffffffffffffffffffffffffffffff1673ffffffffffffffffffffffffffffffffffffffff1673ffffffffffffffffffffffffffffffffffffffff16815250509050600060046000878152602001908152602001600020604051806080016040529081600082018054610d94906126a3565b80601f0160208091040260200160405190810160405280929190818152602001828054610dc0906126a3565b8015610e0d5780601f10610de257610100808354040283529160200191610e0d565b820191906000526020600020905b815481529060010190602001808311610df057829003601f168201915b50505050508152602001600182018054610e26906126a3565b80601f0160208091040260200160405190810160405280929190818152602001828054610e52906126a3565b8015610e9f5780601f10610e7457610100808354040283529160200191610e9f565b820191906000526020600020905b815481529060010190602001808311610e8257829003601f168201915b50505050508152602001600282018054610eb8906126a3565b80601f0160208091040260200160405190810160405280929190818152602001828054610ee4906126a3565b8015610f315780601f10610f0657610100808354040283529160200191610f31565b820191906000526020600020905b815481529060010190602001808311610f1457829003601f168201915b505050505081526020016003820160009054906101000a900473ffffffffffffffffffffffffffffffffffffffff1673ffffffffffffffffffffffffffffffffffffffff1673ffffffffffffffffffffffffffffffffffffffff16815250509050600060026000815480929190610fa7906127bd565b9190505590507fcec9b8e63c868f2f7f30368f1583e7aa39ae80e163d57a859fa5a90244b28ac18360400151604051602001610fe39190612ab4565b6040516020818303038152906040528051906020012014801561104f57507fb77c7d6bf62fa24fc205955093030c58325cd2d3d35fb486ede7594fb99635f582604001516040516020016110379190612ab4565b60405160208183030381529060405280519060200120145b156111ee5785600560008381526020019081526020016000206000018190555081606001516005600083815260200190815260200160002060020160046101000a81548173ffffffffffffffffffffffffffffffffffffffff021916908373ffffffffffffffffffffffffffffffffffffffff160217905550866005600083815260200190815260200160002060010181905550426005600083815260200190815260200160002060020160006101000a81548163ffffffff021916908363ffffffff16021790555081606001516003600088815260200190815260200160002060030160046101000a81548173ffffffffffffffffffffffffffffffffffffffff021916908373ffffffffffffffffffffffffffffffffffffffff160217905550600660008781526020019081526020016000208190806001815401808255809150506001900390600052602060002001600090919091909150557f9ac2b9a804ed38f996a5f7f75e4d0461703cfb354997c05f76c9f54003845316866040516111da9190612073565b60405180910390a160019450505050611678565b7fb77c7d6bf62fa24fc205955093030c58325cd2d3d35fb486ede7594fb99635f583604001516040516020016112249190612ab4565b6040516020818303038152906040528051906020012014801561129057507fb77c7d6bf62fa24fc205955093030c58325cd2d3d35fb486ede7594fb99635f582604001516040516020016112789190612ab4565b60405160208183030381529060405280519060200120145b1561142f5785600560008381526020019081526020016000206000018190555081606001516005600083815260200190815260200160002060020160046101000a81548173ffffffffffffffffffffffffffffffffffffffff021916908373ffffffffffffffffffffffffffffffffffffffff160217905550866005600083815260200190815260200160002060010181905550426005600083815260200190815260200160002060020160006101000a81548163ffffffff021916908363ffffffff16021790555081606001516003600088815260200190815260200160002060030160046101000a81548173ffffffffffffffffffffffffffffffffffffffff021916908373ffffffffffffffffffffffffffffffffffffffff160217905550600660008781526020019081526020016000208190806001815401808255809150506001900390600052602060002001600090919091909150557f9ac2b9a804ed38f996a5f7f75e4d0461703cfb354997c05f76c9f540038453168660405161141b9190612073565b60405180910390a160019450505050611678565b7fb77c7d6bf62fa24fc205955093030c58325cd2d3d35fb486ede7594fb99635f583604001516040516020016114659190612ab4565b604051602081830303815290604052805190602001201480156114d157507fc0878b4b16a78e8085cba0ca02fc0924f1492924058d153153a3f286e0fd70ff82604001516040516020016114b99190612ab4565b60405160208183030381529060405280519060200120145b156116705785600560008381526020019081526020016000206000018190555081606001516005600083815260200190815260200160002060020160046101000a81548173ffffffffffffffffffffffffffffffffffffffff021916908373ffffffffffffffffffffffffffffffffffffffff160217905550866005600083815260200190815260200160002060010181905550426005600083815260200190815260200160002060020160006101000a81548163ffffffff021916908363ffffffff16021790555081606001516003600088815260200190815260200160002060030160046101000a81548173ffffffffffffffffffffffffffffffffffffffff021916908373ffffffffffffffffffffffffffffffffffffffff160217905550600660008781526020019081526020016000208190806001815401808255809150506001900390600052602060002001600090919091909150557f9ac2b9a804ed38f996a5f7f75e4d0461703cfb354997c05f76c9f540038453168660405161165c9190612073565b60405180910390a160019450505050611678565b600094505050505b509392505050565b60008060008060006005600087815260200190815260200160002060405180608001604052908160008201548152602001600182015481526020016002820160009054906101000a900463ffffffff1663ffffffff1663ffffffff1681526020016002820160049054906101000a900473ffffffffffffffffffffffffffffffffffffffff1673ffffffffffffffffffffffffffffffffffffffff1673ffffffffffffffffffffffffffffffffffffffff1681525050905080602001518160000151826060015183604001519450945094509450509193509193565b600360205280600052604060002060009150905080600001805461177f906126a3565b80601f01602080910402602001604051908101604052809291908181526020018280546117ab906126a3565b80156117f85780601f106117cd576101008083540402835291602001916117f8565b820191906000526020600020905b8154815290600101906020018083116117db57829003601f168201915b50505050509080600101805461180d906126a3565b80601f0160208091040260200160405190810160405280929190818152602001828054611839906126a3565b80156118865780601f1061185b57610100808354040283529160200191611886565b820191906000526020600020905b81548152906001019060200180831161186957829003601f168201915b50505050509080600201805461189b906126a3565b80601f01602080910402602001604051908101604052809291908181526020018280546118c7906126a3565b80156119145780601f106118e957610100808354040283529160200191611914565b820191906000526020600020905b8154815290600101906020018083116118f757829003601f168201915b5050505050908060030160009054906101000a900463ffffffff16908060030160049054906101000a900473ffffffffffffffffffffffffffffffffffffffff16908060030160189054906101000a900463ffffffff16905086565b60025481565b606080606060008060006003600088815260200190815260200160002060000160036000898152602001908152602001600020600101600360008a8152602001908152602001600020600201600360008b815260200190815260200160002060030160009054906101000a900463ffffffff16600360008c815260200190815260200160002060030160049054906101000a900473ffffffffffffffffffffffffffffffffffffffff16600360008d815260200190815260200160002060030160189054906101000a900463ffffffff16858054611a53906126a3565b80601f0160208091040260200160405190810160405280929190818152602001828054611a7f906126a3565b8015611acc5780601f10611aa157610100808354040283529160200191611acc565b820191906000526020600020905b815481529060010190602001808311611aaf57829003601f168201915b50505050509550848054611adf906126a3565b80601f0160208091040260200160405190810160405280929190818152602001828054611b0b906126a3565b8015611b585780601f10611b2d57610100808354040283529160200191611b58565b820191906000526020600020905b815481529060010190602001808311611b3b57829003601f168201915b50505050509450838054611b6b906126a3565b80601f0160208091040260200160405190810160405280929190818152602001828054611b97906126a3565b8015611be45780601f10611bb957610100808354040283529160200191611be4565b820191906000526020600020905b815481529060010190602001808311611bc757829003601f168201915b5050505050935095509550955095509550955091939550919395565b600081604051602001611c139190612b07565b6040516020818303038152906040528051906020012060046000878152602001908152602001600020600201604051602001611c4f9190612777565b6040516020818303038152906040528051906020012003611d455783604051602001611c7b9190612b07565b6040516020818303038152906040528051906020012060046000878152602001908152602001600020600001604051602001611cb79190612777565b6040516020818303038152906040528051906020012003611d445782604051602001611ce39190612b07565b6040516020818303038152906040528051906020012060046000878152602001908152602001600020600101604051602001611d1f9190612777565b6040516020818303038152906040528051906020012003611d435760019050611d4a565b5b5b600090505b949350505050565b606060066000838152602001908152602001600020805480602002602001604051908101604052809291908181526020018280548015611db157602002820191906000526020600020905b815481526020019060010190808311611d9d575b50505050509050919050565b60005481565b60015481565b6000604051905090565b600080fd5b600080fd5b600080fd5b600080fd5b6000601f19601f8301169050919050565b7f4e487b7100000000000000000000000000000000000000000000000000000000600052604160045260246000fd5b611e3082611de7565b810181811067ffffffffffffffff82111715611e4f57611e4e611df8565b5b80604052505050565b6000611e62611dc9565b9050611e6e8282611e27565b919050565b600067ffffffffffffffff821115611e8e57611e8d611df8565b5b611e9782611de7565b9050602081019050919050565b82818337600083830152505050565b6000611ec6611ec184611e73565b611e58565b905082815260208101848484011115611ee257611ee1611de2565b5b611eed848285611ea4565b509392505050565b600082601f830112611f0a57611f09611ddd565b5b8135611f1a848260208601611eb3565b91505092915050565b600063ffffffff82169050919050565b611f3c81611f23565b8114611f4757600080fd5b50565b600081359050611f5981611f33565b92915050565b6000819050919050565b611f7281611f5f565b8114611f7d57600080fd5b50565b600081359050611f8f81611f69565b92915050565b600080600080600060a08688031215611fb157611fb0611dd3565b5b600086013567ffffffffffffffff811115611fcf57611fce611dd8565b5b611fdb88828901611ef5565b955050602086013567ffffffffffffffff811115611ffc57611ffb611dd8565b5b61200888828901611ef5565b945050604086013567ffffffffffffffff81111561202957612028611dd8565b5b61203588828901611ef5565b935050606061204688828901611f4a565b925050608061205788828901611f80565b9150509295509295909350565b61206d81611f5f565b82525050565b60006020820190506120886000830184612064565b92915050565b600073ffffffffffffffffffffffffffffffffffffffff82169050919050565b60006120b98261208e565b9050919050565b6120c9816120ae565b81146120d457600080fd5b50565b6000813590506120e6816120c0565b92915050565b6000806000806080858703121561210657612105611dd3565b5b600085013567ffffffffffffffff81111561212457612123611dd8565b5b61213087828801611ef5565b945050602085013567ffffffffffffffff81111561215157612150611dd8565b5b61215d87828801611ef5565b935050604085013567ffffffffffffffff81111561217e5761217d611dd8565b5b61218a87828801611ef5565b925050606061219b878288016120d7565b91505092959194509250565b6000602082840312156121bd576121bc611dd3565b5b60006121cb84828501611f80565b91505092915050565b600081519050919050565b600082825260208201905092915050565b60005b8381101561220e5780820151818401526020810190506121f3565b60008484015250505050565b6000612225826121d4565b61222f81856121df565b935061223f8185602086016121f0565b61224881611de7565b840191505092915050565b61225c816120ae565b82525050565b6000606082019050818103600083015261227c818661221a565b905061228b6020830185612253565b818103604083015261229d818461221a565b9050949350505050565b600080604083850312156122be576122bd611dd3565b5b60006122cc85828601611f80565b92505060206122dd85828601611f80565b9150509250929050565b60006080820190508181036000830152612301818761221a565b90508181036020830152612315818661221a565b90508181036040830152612329818561221a565b90506123386060830184612253565b95945050505050565b61234a81611f23565b82525050565b60006080820190506123656000830187612064565b6123726020830186612064565b61237f6040830185612341565b61238c6060830184612253565b95945050505050565b6000806000606084860312156123ae576123ad611dd3565b5b60006123bc86828701611f80565b93505060206123cd86828701611f80565b92505060406123de86828701611f80565b9150509250925092565b60008115159050919050565b6123fd816123e8565b82525050565b600060208201905061241860008301846123f4565b92915050565b60006080820190506124336000830187612064565b6124406020830186612064565b61244d6040830185612253565b61245a6060830184612341565b95945050505050565b600060c082019050818103600083015261247d818961221a565b90508181036020830152612491818861221a565b905081810360408301526124a5818761221a565b90506124b46060830186612341565b6124c16080830185612253565b6124ce60a0830184612341565b979650505050505050565b600080600080608085870312156124f3576124f2611dd3565b5b600061250187828801611f80565b945050602085013567ffffffffffffffff81111561252257612521611dd8565b5b61252e87828801611ef5565b935050604085013567ffffffffffffffff81111561254f5761254e611dd8565b5b61255b87828801611ef5565b925050606085013567ffffffffffffffff81111561257c5761257b611dd8565b5b61258887828801611ef5565b91505092959194509250565b600081519050919050565b600082825260208201905092915050565b6000819050602082019050919050565b6125c981611f5f565b82525050565b60006125db83836125c0565b60208301905092915050565b6000602082019050919050565b60006125ff82612594565b612609818561259f565b9350612614836125b0565b8060005b8381101561264557815161262c88826125cf565b9750612637836125e7565b925050600181019050612618565b5085935050505092915050565b6000602082019050818103600083015261266c81846125f4565b905092915050565b7f4e487b7100000000000000000000000000000000000000000000000000000000600052602260045260246000fd5b600060028204905060018216806126bb57607f821691505b6020821081036126ce576126cd612674565b5b50919050565b600081905092915050565b60008190508160005260206000209050919050565b60008154612701816126a3565b61270b81866126d4565b94506001821660008114612726576001811461273b5761276e565b60ff198316865281151582028601935061276e565b612744856126df565b60005b8381101561276657815481890152600182019150602081019050612747565b838801955050505b50505092915050565b600061278382846126f4565b915081905092915050565b7f4e487b7100000000000000000000000000000000000000000000000000000000600052601160045260246000fd5b60006127c882611f5f565b91507fffffffffffffffffffffffffffffffffffffffffffffffffffffffffffffffff82036127fa576127f961278e565b5b600182019050919050565b60006020601f8301049050919050565b600082821b905092915050565b6000600883026128527fffffffffffffffffffffffffffffffffffffffffffffffffffffffffffffffff82612815565b61285c8683612815565b95508019841693508086168417925050509392505050565b6000819050919050565b600061289961289461288f84611f5f565b612874565b611f5f565b9050919050565b6000819050919050565b6128b38361287e565b6128c76128bf826128a0565b848454612822565b825550505050565b600090565b6128dc6128cf565b6128e78184846128aa565b505050565b5b8181101561290b576129006000826128d4565b6001810190506128ed565b5050565b601f82111561295057612921816126df565b61292a84612805565b81016020851015612939578190505b61294d61294585612805565b8301826128ec565b50505b505050565b600082821c905092915050565b600061297360001984600802612955565b1980831691505092915050565b600061298c8383612962565b9150826002028217905092915050565b6129a5826121d4565b67ffffffffffffffff8111156129be576129bd611df8565b5b6129c882546126a3565b6129d382828561290f565b600060209050601f831160018114612a0657600084156129f4578287015190505b6129fe8582612980565b865550612a66565b601f198416612a14866126df565b60005b82811015612a3c57848901518255600182019150602085019450602081019050612a17565b86831015612a595784890151612a55601f891682612962565b8355505b6001600288020188555050505b505050505050565b50565b6000612a7e6000836121df565b9150612a8982612a6e565b600082019050919050565b60006020820190508181036000830152612aad81612a71565b9050919050565b60006020820190508181036000830152612ace818461221a565b905092915050565b6000612ae1826121d4565b612aeb81856126d4565b9350612afb8185602086016121f0565b80840191505092915050565b6000612b138284612ad6565b91508190509291505056fea2646970667358221220899589678124526e473bc88eaee580acf7cd264d7d548fa00af992e321a9e4a764736f6c63430008110033",
  "immutableReferences": {},
  "source": "//SPDX-License-Identifier: MIT\r\npragma solidity ^0.8.13;\r\n\r\ncontract SupplyChain {\r\n    uint256 public product_id = 0;\r\n    uint256 public participant_id = 0;\r\n    uint256 public owner_id = 0;\r\n\r\n    struct product {\r\n        string modelNumber;\r\n        string partNumber;\r\n        string serialNumber;\r\n        uint32 cost;\r\n        address productOwner;\r\n        uint32 mfgTimeStamp;\r\n    }\r\n\r\n    mapping (uint256 => product) public products;\r\n\r\n    struct participant {\r\n        string username;\r\n        string password;\r\n        string participantType;\r\n        address participantAddress;\r\n    }\r\n\r\n    mapping (uint256 => participant) public participants;\r\n\r\n    struct ownership {\r\n        uint256 productId;\r\n        uint256 ownerId;\r\n        uint32 txnTimeStamp;\r\n        address ownerAddress;\r\n    }\r\n\r\n    mapping (uint256 => ownership) public ownerships;\r\n    mapping (uint256 => uint256[]) public productTrack;\r\n\r\n    event TransferOwnership(uint256 productId);\r\n\r\n    function addParticipant(string memory _uname,\r\n                            string memory _pass, \r\n                            string memory _pType,\r\n                            address _pAddress) public returns (uint256) {\r\n\r\n            uint256 userId = participant_id++;\r\n            participants[userId].username = _uname;\r\n            participants[userId].password = _pass;\r\n            participants[userId].participantType = _pType;\r\n            participants[userId].participantAddress = _pAddress;\r\n\r\n            return userId;\r\n    }\r\n\r\n    function getParticipant(uint256 _participantId) public view returns (string memory, address, string memory) {\r\n        return (participants[_participantId].username,\r\n                participants[_participantId].participantAddress,\r\n                participants[_participantId].participantType);\r\n    }\r\n\r\n    modifier onlyOwner(uint256 _productId) {\r\n        require(msg.sender == products[_productId].productOwner, \"\");\r\n        _;\r\n    }\r\n\r\n    function addProduct(string memory _mNumber,\r\n                        string memory _pNumber, \r\n                        string memory _sNumber,\r\n                        uint32 _cost, \r\n                        uint256 _ownerId) public returns (uint256) {\r\n\r\n            if(keccak256(abi.encodePacked(participants[_ownerId].participantType)) == \r\n            keccak256(\"Manufacturer\")) {\r\n                uint256 prodId = product_id++;\r\n                products[prodId].modelNumber = _mNumber;\r\n                products[prodId].partNumber = _pNumber;\r\n                products[prodId].serialNumber = _sNumber;\r\n                products[prodId].cost = _cost;\r\n                products[prodId].productOwner = participants[_ownerId].participantAddress;\r\n                products[prodId].mfgTimeStamp = uint32(block.timestamp);\r\n                return prodId;\r\n            }\r\n            return 0;\r\n    }  \r\n\r\n    function getProduct(uint256 _productId) public view returns (string memory, string memory,\r\n                 string memory, uint32, address, uint32) {\r\n\r\n            return ( products[_productId].modelNumber,\r\n                    products[_productId].partNumber,\r\n                    products[_productId].serialNumber,\r\n                    products[_productId].cost,\r\n                    products[_productId].productOwner,\r\n                    products[_productId].mfgTimeStamp);\r\n    }\r\n\r\n    function newOwner(uint256 _userId1, uint256 _userId2, uint256 _productId)\r\n        public onlyOwner(_productId) returns (bool) {\r\n            participant memory p1 = participants[_userId1];\r\n            participant memory p2 = participants[_userId2];\r\n            uint256 ownershipId = owner_id++;\r\n\r\n            if(keccak256(abi.encode(p1.participantType)) == keccak256(\"Manufacturer\") \r\n                && keccak256(abi.encode(p2.participantType)) == keccak256(\"Supplier\")) {\r\n                    ownerships[ownershipId].productId = _productId;\r\n                    ownerships[ownershipId].ownerAddress = p2.participantAddress;\r\n                    ownerships[ownershipId].ownerId = _userId2;\r\n                    ownerships[ownershipId].txnTimeStamp = uint32(block.timestamp);\r\n                    products[_productId].productOwner = p2.participantAddress;\r\n                    productTrack[_productId].push(ownershipId);\r\n                    emit TransferOwnership(_productId);\r\n\r\n                    return (true);\r\n                }\r\n            else if(keccak256(abi.encode(p1.participantType)) == keccak256(\"Supplier\")\r\n                && keccak256(abi.encode(p2.participantType)) == keccak256(\"Supplier\")) {\r\n                    ownerships[ownershipId].productId = _productId;\r\n                    ownerships[ownershipId].ownerAddress = p2.participantAddress;\r\n                    ownerships[ownershipId].ownerId = _userId2;\r\n                    ownerships[ownershipId].txnTimeStamp = uint32(block.timestamp);\r\n                    products[_productId].productOwner = p2.participantAddress;\r\n                    productTrack[_productId].push(ownershipId);\r\n                    emit TransferOwnership(_productId);\r\n                    return (true);\r\n                } \r\n            else if(keccak256(abi.encode(p1.participantType)) == keccak256(\"Supplier\")\r\n                && keccak256(abi.encode(p2.participantType)) == keccak256(\"Consumer\")) {\r\n                    ownerships[ownershipId].productId = _productId;\r\n                    ownerships[ownershipId].ownerAddress = p2.participantAddress;\r\n                    ownerships[ownershipId].ownerId = _userId2;\r\n                    ownerships[ownershipId].txnTimeStamp = uint32(block.timestamp);\r\n                    products[_productId].productOwner = p2.participantAddress;\r\n                    productTrack[_productId].push(ownershipId);\r\n                    emit TransferOwnership(_productId);\r\n                    return (true);\r\n                }\r\n            return false;\r\n    }\r\n\r\n    function getProverance (uint256 _productId) external view returns (uint256[] memory) {\r\n        return productTrack[_productId];\r\n    }\r\n\r\n    function getOwnership (uint256 _regId) external view returns (uint256, uint256, address, uint32) {\r\n        ownership memory r = ownerships[_regId];\r\n\r\n        return (r.ownerId, r.productId, r.ownerAddress, r.txnTimeStamp);\r\n    }\r\n\r\n    function AuthenticateParticipant (uint256 _uId,\r\n                                    string memory _uname,\r\n                                    string memory _pass,\r\n                                    string memory _utype ) public view returns (bool) {\r\n\r\n            if(keccak256(abi.encodePacked(participants[_uId].participantType)) == \r\n                keccak256(abi.encodePacked(_utype))) {\r\n                    if(keccak256(abi.encodePacked(participants[_uId].username)) == \r\n                        keccak256(abi.encodePacked(_uname))) {\r\n                            if(keccak256(abi.encodePacked(participants[_uId].password)) == \r\n                                keccak256(abi.encodePacked(_pass))) {\r\n                                    return true;\r\n                                }\r\n                        }\r\n                }    \r\n                return false;              \r\n\r\n    }\r\n\r\n    \r\n}",
  "sourcePath": "D:\\SupplyChainDapp\\contracts\\SupplyChain.sol",
  "compiler": {
    "name": "solc",
    "version": "0.8.17+commit.8df45f5f.Emscripten.clang"
  },
  "schemaVersion": "3.4.11",
  "updatedAt": "2022-12-05T05:08:38.647Z",
  "networkType": "ethereum",
  "devdoc": {
    "kind": "dev",
    "methods": {},
    "version": 1
  },
  "userdoc": {
    "kind": "user",
    "methods": {},
    "version": 1
  }
}