{
  "contractName": "SupplyChain",
  "abi": [
    {
      "anonymous": false,
      "inputs": [
        {
          "indexed": false,
          "internalType": "uint256",
          "name": "productId",
          "type": "uint256"
        }
      ],
      "name": "TransferOwnership",
      "type": "event"
    },
    {
      "inputs": [],
      "name": "owner_id",
      "outputs": [
        {
          "internalType": "uint256",
          "name": "",
          "type": "uint256"
        }
      ],
      "stateMutability": "view",
      "type": "function"
    },
    {
      "inputs": [
        {
          "internalType": "uint256",
          "name": "",
          "type": "uint256"
        }
      ],
      "name": "ownerships",
      "outputs": [
        {
          "internalType": "uint256",
          "name": "productId",
          "type": "uint256"
        },
        {
          "internalType": "uint256",
          "name": "ownerId",
          "type": "uint256"
        },
        {
          "internalType": "uint32",
          "name": "txnTimeStamp",
          "type": "uint32"
        },
        {
          "internalType": "address",
          "name": "ownerAddress",
          "type": "address"
        }
      ],
      "stateMutability": "view",
      "type": "function"
    },
    {
      "inputs": [],
      "name": "participant_id",
      "outputs": [
        {
          "internalType": "uint256",
          "name": "",
          "type": "uint256"
        }
      ],
      "stateMutability": "view",
      "type": "function"
    },
    {
      "inputs": [
        {
          "internalType": "uint256",
          "name": "",
          "type": "uint256"
        }
      ],
      "name": "participants",
      "outputs": [
        {
          "internalType": "string",
          "name": "username",
          "type": "string"
        },
        {
          "internalType": "string",
          "name": "password",
          "type": "string"
        },
        {
          "internalType": "string",
          "name": "participantType",
          "type": "string"
        },
        {
          "internalType": "address",
          "name": "participantAddress",
          "type": "address"
        }
      ],
      "stateMutability": "view",
      "type": "function"
    },
    {
      "inputs": [
        {
          "internalType": "uint256",
          "name": "",
          "type": "uint256"
        },
        {
          "internalType": "uint256",
          "name": "",
          "type": "uint256"
        }
      ],
      "name": "productTrack",
      "outputs": [
        {
          "internalType": "uint256",
          "name": "",
          "type": "uint256"
        }
      ],
      "stateMutability": "view",
      "type": "function"
    },
    {
      "inputs": [],
      "name": "product_id",
      "outputs": [
        {
          "internalType": "uint256",
          "name": "",
          "type": "uint256"
        }
      ],
      "stateMutability": "view",
      "type": "function"
    },
    {
      "inputs": [
        {
          "internalType": "uint256",
          "name": "",
          "type": "uint256"
        }
      ],
      "name": "products",
      "outputs": [
        {
          "internalType": "string",
          "name": "modelNumber",
          "type": "string"
        },
        {
          "internalType": "string",
          "name": "partNumber",
          "type": "string"
        },
        {
          "internalType": "string",
          "name": "serialNumber",
          "type": "string"
        },
        {
          "internalType": "uint32",
          "name": "cost",
          "type": "uint32"
        },
        {
          "internalType": "address",
          "name": "productOwner",
          "type": "address"
        },
        {
          "internalType": "uint32",
          "name": "mfgTimeStamp",
          "type": "uint32"
        }
      ],
      "stateMutability": "view",
      "type": "function"
    },
    {
      "inputs": [
        {
          "internalType": "string",
          "name": "_uname",
          "type": "string"
        },
        {
          "internalType": "string",
          "name": "_pass",
          "type": "string"
        },
        {
          "internalType": "string",
          "name": "_pType",
          "type": "string"
        },
        {
          "internalType": "address",
          "name": "_pAddress",
          "type": "address"
        }
      ],
      "name": "addParticipant",
      "outputs": [
        {
          "internalType": "uint256",
          "name": "",
          "type": "uint256"
        }
      ],
      "stateMutability": "nonpayable",
      "type": "function"
    },
    {
      "inputs": [
        {
          "internalType": "uint256",
          "name": "_participantId",
          "type": "uint256"
        }
      ],
      "name": "getParticipant",
      "outputs": [
        {
          "internalType": "string",
          "name": "",
          "type": "string"
        },
        {
          "internalType": "address",
          "name": "",
          "type": "address"
        },
        {
          "internalType": "string",
          "name": "",
          "type": "string"
        }
      ],
      "stateMutability": "view",
      "type": "function"
    },
    {
      "inputs": [
        {
          "internalType": "uint256",
          "name": "_ownerId",
          "type": "uint256"
        },
        {
          "internalType": "string",
          "name": "_mNumber",
          "type": "string"
        },
        {
          "internalType": "string",
          "name": "_pNumber",
          "type": "string"
        },
        {
          "internalType": "string",
          "name": "_sNumber",
          "type": "string"
        },
        {
          "internalType": "uint32",
          "name": "_cost",
          "type": "uint32"
        }
      ],
      "name": "addProduct",
      "outputs": [
        {
          "internalType": "uint256",
          "name": "",
          "type": "uint256"
        }
      ],
      "stateMutability": "nonpayable",
      "type": "function"
    },
    {
      "inputs": [
        {
          "internalType": "uint256",
          "name": "_productId",
          "type": "uint256"
        }
      ],
      "name": "getProduct",
      "outputs": [
        {
          "internalType": "string",
          "name": "",
          "type": "string"
        },
        {
          "internalType": "string",
          "name": "",
          "type": "string"
        },
        {
          "internalType": "string",
          "name": "",
          "type": "string"
        },
        {
          "internalType": "uint32",
          "name": "",
          "type": "uint32"
        },
        {
          "internalType": "address",
          "name": "",
          "type": "address"
        },
        {
          "internalType": "uint32",
          "name": "",
          "type": "uint32"
        }
      ],
      "stateMutability": "view",
      "type": "function"
    },
    {
      "inputs": [
        {
          "internalType": "uint256",
          "name": "_userId1",
          "type": "uint256"
        },
        {
          "internalType": "uint256",
          "name": "_userId2",
          "type": "uint256"
        },
        {
          "internalType": "uint256",
          "name": "_productId",
          "type": "uint256"
        }
      ],
      "name": "newOwner",
      "outputs": [
        {
          "internalType": "bool",
          "name": "",
          "type": "bool"
        }
      ],
      "stateMutability": "nonpayable",
      "type": "function"
    },
    {
      "inputs": [
        {
          "internalType": "uint256",
          "name": "_productId",
          "type": "uint256"
        }
      ],
      "name": "getProverance",
      "outputs": [
        {
          "internalType": "uint256[]",
          "name": "",
          "type": "uint256[]"
        }
      ],
      "stateMutability": "view",
      "type": "function"
    },
    {
      "inputs": [
        {
          "internalType": "uint256",
          "name": "_regId",
          "type": "uint256"
        }
      ],
      "name": "getOwnership",
      "outputs": [
        {
          "internalType": "uint256",
          "name": "",
          "type": "uint256"
        },
        {
          "internalType": "uint256",
          "name": "",
          "type": "uint256"
        },
        {
          "internalType": "address",
          "name": "",
          "type": "address"
        },
        {
          "internalType": "uint32",
          "name": "",
          "type": "uint32"
        }
      ],
      "stateMutability": "view",
      "type": "function"
    },
    {
      "inputs": [
        {
          "internalType": "uint256",
          "name": "_uId",
          "type": "uint256"
        },
        {
          "internalType": "string",
          "name": "_uname",
          "type": "string"
        },
        {
          "internalType": "string",
          "name": "_pass",
          "type": "string"
        },
        {
          "internalType": "string",
          "name": "_utype",
          "type": "string"
        }
      ],
      "name": "AuthenticateParticipant",
      "outputs": [
        {
          "internalType": "bool",
          "name": "",
          "type": "bool"
        }
      ],
      "stateMutability": "view",
      "type": "function"
    }
  ],
  "bytecode": "0x6080604052600080556000600155600060025534801561001e57600080fd5b50612b548061002e6000396000f3fe608060405234801561001057600080fd5b50600436106100f55760003560e01c8063704044dc11610097578063ca12987911610066578063ca1298791461030d578063ce488f341461033d578063eab0a4791461036d578063fc2da9101461038b576100f5565b8063704044dc146102525780637acc0b20146102855780638f5ebf71146102ba578063b9db15b4146102d8576100f5565b806335c1d349116100d357806335c1d3491461018c5780633acefa20146101bf5780633d5fcd05146101f25780634163501b14610222576100f5565b806313169bed146100fa5780631b9db2ef1461012a5780632761118f1461015c575b600080fd5b610114600480360381019061010f9190611f81565b6103a9565b6040516101219190612055565b60405180910390f35b610144600480360381019061013f919061209c565b610492565b60405161015393929190612157565b60405180910390f35b6101766004803603810190610171919061219c565b610620565b6040516101839190612055565b60405180910390f35b6101a660048036038101906101a1919061209c565b610651565b6040516101b694939291906121dc565b60405180910390f35b6101d960048036038101906101d4919061209c565b610839565b6040516101e99493929190612255565b60405180910390f35b61020c600480360381019061020791906122c6565b610899565b6040516102199190612055565b60405180910390f35b61023c60048036038101906102379190612395565b610a8f565b6040516102499190612403565b60405180910390f35b61026c6004803603810190610267919061209c565b611680565b60405161027c949392919061241e565b60405180910390f35b61029f600480360381019061029a919061209c565b61175c565b6040516102b196959493929190612463565b60405180910390f35b6102c2611970565b6040516102cf9190612055565b60405180910390f35b6102f260048036038101906102ed919061209c565b611976565b60405161030496959493929190612463565b60405180910390f35b610327600480360381019061032291906124d9565b611c00565b6040516103349190612403565b60405180910390f35b6103576004803603810190610352919061209c565b611d52565b6040516103649190612652565b60405180910390f35b610375611dbd565b6040516103829190612055565b60405180910390f35b610393611dc3565b6040516103a09190612055565b60405180910390f35b600080600160008154809291906103bf906126a3565b919050559050856004600083815260200190815260200160002060000190816103e891906128f7565b508460046000838152602001908152602001600020600101908161040c91906128f7565b508360046000838152602001908152602001600020600201908161043091906128f7565b50826004600083815260200190815260200160002060030160006101000a81548173ffffffffffffffffffffffffffffffffffffffff021916908373ffffffffffffffffffffffffffffffffffffffff16021790555080915050949350505050565b606060006060600460008581526020019081526020016000206000016004600086815260200190815260200160002060030160009054906101000a900473ffffffffffffffffffffffffffffffffffffffff16600460008781526020019081526020016000206002018280546105079061271a565b80601f01602080910402602001604051908101604052809291908181526020018280546105339061271a565b80156105805780601f1061055557610100808354040283529160200191610580565b820191906000526020600020905b81548152906001019060200180831161056357829003601f168201915b505050505092508080546105939061271a565b80601f01602080910402602001604051908101604052809291908181526020018280546105bf9061271a565b801561060c5780601f106105e15761010080835404028352916020019161060c565b820191906000526020600020905b8154815290600101906020018083116105ef57829003601f168201915b505050505090509250925092509193909250565b6006602052816000526040600020818154811061063c57600080fd5b90600052602060002001600091509150505481565b60046020528060005260406000206000915090508060000180546106749061271a565b80601f01602080910402602001604051908101604052809291908181526020018280546106a09061271a565b80156106ed5780601f106106c2576101008083540402835291602001916106ed565b820191906000526020600020905b8154815290600101906020018083116106d057829003601f168201915b5050505050908060010180546107029061271a565b80601f016020809104026020016040519081016040528092919081815260200182805461072e9061271a565b801561077b5780601f106107505761010080835404028352916020019161077b565b820191906000526020600020905b81548152906001019060200180831161075e57829003601f168201915b5050505050908060020180546107909061271a565b80601f01602080910402602001604051908101604052809291908181526020018280546107bc9061271a565b80156108095780601f106107de57610100808354040283529160200191610809565b820191906000526020600020905b8154815290600101906020018083116107ec57829003601f168201915b5050505050908060030160009054906101000a900473ffffffffffffffffffffffffffffffffffffffff16905084565b60056020528060005260406000206000915090508060000154908060010154908060020160009054906101000a900463ffffffff16908060020160049054906101000a900473ffffffffffffffffffffffffffffffffffffffff16905084565b60007fcec9b8e63c868f2f7f30368f1583e7aa39ae80e163d57a859fa5a90244b28ac1600460008881526020019081526020016000206002016040516020016108e29190612a57565b6040516020818303038152906040528051906020012003610a81576000806000815480929190610911906126a3565b9190505590508560036000838152602001908152602001600020600001908161093a91906128f7565b508460036000838152602001908152602001600020600101908161095e91906128f7565b508360036000838152602001908152602001600020600201908161098291906128f7565b50826003600083815260200190815260200160002060030160006101000a81548163ffffffff021916908363ffffffff1602179055506004600088815260200190815260200160002060030160009054906101000a900473ffffffffffffffffffffffffffffffffffffffff166003600083815260200190815260200160002060030160046101000a81548173ffffffffffffffffffffffffffffffffffffffff021916908373ffffffffffffffffffffffffffffffffffffffff160217905550426003600083815260200190815260200160002060030160186101000a81548163ffffffff021916908363ffffffff16021790555080915050610a86565b600090505b95945050505050565b6000816003600082815260200190815260200160002060030160049054906101000a900473ffffffffffffffffffffffffffffffffffffffff1673ffffffffffffffffffffffffffffffffffffffff163373ffffffffffffffffffffffffffffffffffffffff1614610b36576040517f08c379a0000000000000000000000000000000000000000000000000000000008152600401610b2d90612a94565b60405180910390fd5b600060046000878152602001908152602001600020604051806080016040529081600082018054610b669061271a565b80601f0160208091040260200160405190810160405280929190818152602001828054610b929061271a565b8015610bdf5780601f10610bb457610100808354040283529160200191610bdf565b820191906000526020600020905b815481529060010190602001808311610bc257829003601f168201915b50505050508152602001600182018054610bf89061271a565b80601f0160208091040260200160405190810160405280929190818152602001828054610c249061271a565b8015610c715780601f10610c4657610100808354040283529160200191610c71565b820191906000526020600020905b815481529060010190602001808311610c5457829003601f168201915b50505050508152602001600282018054610c8a9061271a565b80601f0160208091040260200160405190810160405280929190818152602001828054610cb69061271a565b8015610d035780601f10610cd857610100808354040283529160200191610d03565b820191906000526020600020905b815481529060010190602001808311610ce657829003601f168201915b505050505081526020016003820160009054906101000a900473ffffffffffffffffffffffffffffffffffffffff1673ffffffffffffffffffffffffffffffffffffffff1673ffffffffffffffffffffffffffffffffffffffff16815250509050600060046000878152602001908152602001600020604051806080016040529081600082018054610d949061271a565b80601f0160208091040260200160405190810160405280929190818152602001828054610dc09061271a565b8015610e0d5780601f10610de257610100808354040283529160200191610e0d565b820191906000526020600020905b815481529060010190602001808311610df057829003601f168201915b50505050508152602001600182018054610e269061271a565b80601f0160208091040260200160405190810160405280929190818152602001828054610e529061271a565b8015610e9f5780601f10610e7457610100808354040283529160200191610e9f565b820191906000526020600020905b815481529060010190602001808311610e8257829003601f168201915b50505050508152602001600282018054610eb89061271a565b80601f0160208091040260200160405190810160405280929190818152602001828054610ee49061271a565b8015610f315780601f10610f0657610100808354040283529160200191610f31565b820191906000526020600020905b815481529060010190602001808311610f1457829003601f168201915b505050505081526020016003820160009054906101000a900473ffffffffffffffffffffffffffffffffffffffff1673ffffffffffffffffffffffffffffffffffffffff1673ffffffffffffffffffffffffffffffffffffffff16815250509050600060026000815480929190610fa7906126a3565b9190505590507fcec9b8e63c868f2f7f30368f1583e7aa39ae80e163d57a859fa5a90244b28ac18360400151604051602001610fe39190612ab4565b6040516020818303038152906040528051906020012014801561104f57507fb77c7d6bf62fa24fc205955093030c58325cd2d3d35fb486ede7594fb99635f582604001516040516020016110379190612ab4565b60405160208183030381529060405280519060200120145b156111ee5785600560008381526020019081526020016000206000018190555081606001516005600083815260200190815260200160002060020160046101000a81548173ffffffffffffffffffffffffffffffffffffffff021916908373ffffffffffffffffffffffffffffffffffffffff160217905550866005600083815260200190815260200160002060010181905550426005600083815260200190815260200160002060020160006101000a81548163ffffffff021916908363ffffffff16021790555081606001516003600088815260200190815260200160002060030160046101000a81548173ffffffffffffffffffffffffffffffffffffffff021916908373ffffffffffffffffffffffffffffffffffffffff160217905550600660008781526020019081526020016000208190806001815401808255809150506001900390600052602060002001600090919091909150557f9ac2b9a804ed38f996a5f7f75e4d0461703cfb354997c05f76c9f54003845316866040516111da9190612055565b60405180910390a160019450505050611678565b7fb77c7d6bf62fa24fc205955093030c58325cd2d3d35fb486ede7594fb99635f583604001516040516020016112249190612ab4565b6040516020818303038152906040528051906020012014801561129057507fb77c7d6bf62fa24fc205955093030c58325cd2d3d35fb486ede7594fb99635f582604001516040516020016112789190612ab4565b60405160208183030381529060405280519060200120145b1561142f5785600560008381526020019081526020016000206000018190555081606001516005600083815260200190815260200160002060020160046101000a81548173ffffffffffffffffffffffffffffffffffffffff021916908373ffffffffffffffffffffffffffffffffffffffff160217905550866005600083815260200190815260200160002060010181905550426005600083815260200190815260200160002060020160006101000a81548163ffffffff021916908363ffffffff16021790555081606001516003600088815260200190815260200160002060030160046101000a81548173ffffffffffffffffffffffffffffffffffffffff021916908373ffffffffffffffffffffffffffffffffffffffff160217905550600660008781526020019081526020016000208190806001815401808255809150506001900390600052602060002001600090919091909150557f9ac2b9a804ed38f996a5f7f75e4d0461703cfb354997c05f76c9f540038453168660405161141b9190612055565b60405180910390a160019450505050611678565b7fb77c7d6bf62fa24fc205955093030c58325cd2d3d35fb486ede7594fb99635f583604001516040516020016114659190612ab4565b604051602081830303815290604052805190602001201480156114d157507fc0878b4b16a78e8085cba0ca02fc0924f1492924058d153153a3f286e0fd70ff82604001516040516020016114b99190612ab4565b60405160208183030381529060405280519060200120145b156116705785600560008381526020019081526020016000206000018190555081606001516005600083815260200190815260200160002060020160046101000a81548173ffffffffffffffffffffffffffffffffffffffff021916908373ffffffffffffffffffffffffffffffffffffffff160217905550866005600083815260200190815260200160002060010181905550426005600083815260200190815260200160002060020160006101000a81548163ffffffff021916908363ffffffff16021790555081606001516003600088815260200190815260200160002060030160046101000a81548173ffffffffffffffffffffffffffffffffffffffff021916908373ffffffffffffffffffffffffffffffffffffffff160217905550600660008781526020019081526020016000208190806001815401808255809150506001900390600052602060002001600090919091909150557f9ac2b9a804ed38f996a5f7f75e4d0461703cfb354997c05f76c9f540038453168660405161165c9190612055565b60405180910390a160019450505050611678565b600094505050505b509392505050565b60008060008060006005600087815260200190815260200160002060405180608001604052908160008201548152602001600182015481526020016002820160009054906101000a900463ffffffff1663ffffffff1663ffffffff1681526020016002820160049054906101000a900473ffffffffffffffffffffffffffffffffffffffff1673ffffffffffffffffffffffffffffffffffffffff1673ffffffffffffffffffffffffffffffffffffffff1681525050905080602001518160000151826060015183604001519450945094509450509193509193565b600360205280600052604060002060009150905080600001805461177f9061271a565b80601f01602080910402602001604051908101604052809291908181526020018280546117ab9061271a565b80156117f85780601f106117cd576101008083540402835291602001916117f8565b820191906000526020600020905b8154815290600101906020018083116117db57829003601f168201915b50505050509080600101805461180d9061271a565b80601f01602080910402602001604051908101604052809291908181526020018280546118399061271a565b80156118865780601f1061185b57610100808354040283529160200191611886565b820191906000526020600020905b81548152906001019060200180831161186957829003601f168201915b50505050509080600201805461189b9061271a565b80601f01602080910402602001604051908101604052809291908181526020018280546118c79061271a565b80156119145780601f106118e957610100808354040283529160200191611914565b820191906000526020600020905b8154815290600101906020018083116118f757829003601f168201915b5050505050908060030160009054906101000a900463ffffffff16908060030160049054906101000a900473ffffffffffffffffffffffffffffffffffffffff16908060030160189054906101000a900463ffffffff16905086565b60025481565b606080606060008060006003600088815260200190815260200160002060000160036000898152602001908152602001600020600101600360008a8152602001908152602001600020600201600360008b815260200190815260200160002060030160009054906101000a900463ffffffff16600360008c815260200190815260200160002060030160049054906101000a900473ffffffffffffffffffffffffffffffffffffffff16600360008d815260200190815260200160002060030160189054906101000a900463ffffffff16858054611a539061271a565b80601f0160208091040260200160405190810160405280929190818152602001828054611a7f9061271a565b8015611acc5780601f10611aa157610100808354040283529160200191611acc565b820191906000526020600020905b815481529060010190602001808311611aaf57829003601f168201915b50505050509550848054611adf9061271a565b80601f0160208091040260200160405190810160405280929190818152602001828054611b0b9061271a565b8015611b585780601f10611b2d57610100808354040283529160200191611b58565b820191906000526020600020905b815481529060010190602001808311611b3b57829003601f168201915b50505050509450838054611b6b9061271a565b80601f0160208091040260200160405190810160405280929190818152602001828054611b979061271a565b8015611be45780601f10611bb957610100808354040283529160200191611be4565b820191906000526020600020905b815481529060010190602001808311611bc757829003601f168201915b5050505050935095509550955095509550955091939550919395565b600081604051602001611c139190612b07565b6040516020818303038152906040528051906020012060046000878152602001908152602001600020600201604051602001611c4f9190612a57565b6040516020818303038152906040528051906020012003611d455783604051602001611c7b9190612b07565b6040516020818303038152906040528051906020012060046000878152602001908152602001600020600001604051602001611cb79190612a57565b6040516020818303038152906040528051906020012003611d445782604051602001611ce39190612b07565b6040516020818303038152906040528051906020012060046000878152602001908152602001600020600101604051602001611d1f9190612a57565b6040516020818303038152906040528051906020012003611d435760019050611d4a565b5b5b600090505b949350505050565b606060066000838152602001908152602001600020805480602002602001604051908101604052809291908181526020018280548015611db157602002820191906000526020600020905b815481526020019060010190808311611d9d575b50505050509050919050565b60005481565b60015481565b6000604051905090565b600080fd5b600080fd5b600080fd5b600080fd5b6000601f19601f8301169050919050565b7f4e487b7100000000000000000000000000000000000000000000000000000000600052604160045260246000fd5b611e3082611de7565b810181811067ffffffffffffffff82111715611e4f57611e4e611df8565b5b80604052505050565b6000611e62611dc9565b9050611e6e8282611e27565b919050565b600067ffffffffffffffff821115611e8e57611e8d611df8565b5b611e9782611de7565b9050602081019050919050565b82818337600083830152505050565b6000611ec6611ec184611e73565b611e58565b905082815260208101848484011115611ee257611ee1611de2565b5b611eed848285611ea4565b509392505050565b600082601f830112611f0a57611f09611ddd565b5b8135611f1a848260208601611eb3565b91505092915050565b600073ffffffffffffffffffffffffffffffffffffffff82169050919050565b6000611f4e82611f23565b9050919050565b611f5e81611f43565b8114611f6957600080fd5b50565b600081359050611f7b81611f55565b92915050565b60008060008060808587031215611f9b57611f9a611dd3565b5b600085013567ffffffffffffffff811115611fb957611fb8611dd8565b5b611fc587828801611ef5565b945050602085013567ffffffffffffffff811115611fe657611fe5611dd8565b5b611ff287828801611ef5565b935050604085013567ffffffffffffffff81111561201357612012611dd8565b5b61201f87828801611ef5565b925050606061203087828801611f6c565b91505092959194509250565b6000819050919050565b61204f8161203c565b82525050565b600060208201905061206a6000830184612046565b92915050565b6120798161203c565b811461208457600080fd5b50565b60008135905061209681612070565b92915050565b6000602082840312156120b2576120b1611dd3565b5b60006120c084828501612087565b91505092915050565b600081519050919050565b600082825260208201905092915050565b60005b838110156121035780820151818401526020810190506120e8565b60008484015250505050565b600061211a826120c9565b61212481856120d4565b93506121348185602086016120e5565b61213d81611de7565b840191505092915050565b61215181611f43565b82525050565b60006060820190508181036000830152612171818661210f565b90506121806020830185612148565b8181036040830152612192818461210f565b9050949350505050565b600080604083850312156121b3576121b2611dd3565b5b60006121c185828601612087565b92505060206121d285828601612087565b9150509250929050565b600060808201905081810360008301526121f6818761210f565b9050818103602083015261220a818661210f565b9050818103604083015261221e818561210f565b905061222d6060830184612148565b95945050505050565b600063ffffffff82169050919050565b61224f81612236565b82525050565b600060808201905061226a6000830187612046565b6122776020830186612046565b6122846040830185612246565b6122916060830184612148565b95945050505050565b6122a381612236565b81146122ae57600080fd5b50565b6000813590506122c08161229a565b92915050565b600080600080600060a086880312156122e2576122e1611dd3565b5b60006122f088828901612087565b955050602086013567ffffffffffffffff81111561231157612310611dd8565b5b61231d88828901611ef5565b945050604086013567ffffffffffffffff81111561233e5761233d611dd8565b5b61234a88828901611ef5565b935050606086013567ffffffffffffffff81111561236b5761236a611dd8565b5b61237788828901611ef5565b9250506080612388888289016122b1565b9150509295509295909350565b6000806000606084860312156123ae576123ad611dd3565b5b60006123bc86828701612087565b93505060206123cd86828701612087565b92505060406123de86828701612087565b9150509250925092565b60008115159050919050565b6123fd816123e8565b82525050565b600060208201905061241860008301846123f4565b92915050565b60006080820190506124336000830187612046565b6124406020830186612046565b61244d6040830185612148565b61245a6060830184612246565b95945050505050565b600060c082019050818103600083015261247d818961210f565b90508181036020830152612491818861210f565b905081810360408301526124a5818761210f565b90506124b46060830186612246565b6124c16080830185612148565b6124ce60a0830184612246565b979650505050505050565b600080600080608085870312156124f3576124f2611dd3565b5b600061250187828801612087565b945050602085013567ffffffffffffffff81111561252257612521611dd8565b5b61252e87828801611ef5565b935050604085013567ffffffffffffffff81111561254f5761254e611dd8565b5b61255b87828801611ef5565b925050606085013567ffffffffffffffff81111561257c5761257b611dd8565b5b61258887828801611ef5565b91505092959194509250565b600081519050919050565b600082825260208201905092915050565b6000819050602082019050919050565b6125c98161203c565b82525050565b60006125db83836125c0565b60208301905092915050565b6000602082019050919050565b60006125ff82612594565b612609818561259f565b9350612614836125b0565b8060005b8381101561264557815161262c88826125cf565b9750612637836125e7565b925050600181019050612618565b5085935050505092915050565b6000602082019050818103600083015261266c81846125f4565b905092915050565b7f4e487b7100000000000000000000000000000000000000000000000000000000600052601160045260246000fd5b60006126ae8261203c565b91507fffffffffffffffffffffffffffffffffffffffffffffffffffffffffffffffff82036126e0576126df612674565b5b600182019050919050565b7f4e487b7100000000000000000000000000000000000000000000000000000000600052602260045260246000fd5b6000600282049050600182168061273257607f821691505b602082108103612745576127446126eb565b5b50919050565b60008190508160005260206000209050919050565b60006020601f8301049050919050565b600082821b905092915050565b6000600883026127ad7fffffffffffffffffffffffffffffffffffffffffffffffffffffffffffffffff82612770565b6127b78683612770565b95508019841693508086168417925050509392505050565b6000819050919050565b60006127f46127ef6127ea8461203c565b6127cf565b61203c565b9050919050565b6000819050919050565b61280e836127d9565b61282261281a826127fb565b84845461277d565b825550505050565b600090565b61283761282a565b612842818484612805565b505050565b5b818110156128665761285b60008261282f565b600181019050612848565b5050565b601f8211156128ab5761287c8161274b565b61288584612760565b81016020851015612894578190505b6128a86128a085612760565b830182612847565b50505b505050565b600082821c905092915050565b60006128ce600019846008026128b0565b1980831691505092915050565b60006128e783836128bd565b9150826002028217905092915050565b612900826120c9565b67ffffffffffffffff81111561291957612918611df8565b5b612923825461271a565b61292e82828561286a565b600060209050601f831160018114612961576000841561294f578287015190505b61295985826128db565b8655506129c1565b601f19841661296f8661274b565b60005b8281101561299757848901518255600182019150602085019450602081019050612972565b868310156129b457848901516129b0601f8916826128bd565b8355505b6001600288020188555050505b505050505050565b600081905092915050565b600081546129e18161271a565b6129eb81866129c9565b94506001821660008114612a065760018114612a1b57612a4e565b60ff1983168652811515820286019350612a4e565b612a248561274b565b60005b83811015612a4657815481890152600182019150602081019050612a27565b838801955050505b50505092915050565b6000612a6382846129d4565b915081905092915050565b50565b6000612a7e6000836120d4565b9150612a8982612a6e565b600082019050919050565b60006020820190508181036000830152612aad81612a71565b9050919050565b60006020820190508181036000830152612ace818461210f565b905092915050565b6000612ae1826120c9565b612aeb81856129c9565b9350612afb8185602086016120e5565b80840191505092915050565b6000612b138284612ad6565b91508190509291505056fea26469706673582212209d6eb30d61424a42322e3e3b0a3efb5a2a2919d45aa7e1a649c861d9f468ee6364736f6c63430008110033",
  "immutableReferences": {},
  "source": "//SPDX-License-Identifier: MIT\r\npragma solidity ^0.8.13;\r\n\r\ncontract SupplyChain {\r\n    uint256 public product_id = 0;\r\n    uint256 public participant_id = 0;\r\n    uint256 public owner_id = 0;\r\n\r\n    struct product {\r\n        string modelNumber;\r\n        string partNumber;\r\n        string serialNumber;\r\n        uint32 cost;\r\n        address productOwner;\r\n        uint32 mfgTimeStamp;\r\n    }\r\n\r\n    mapping (uint256 => product) public products;\r\n\r\n    struct participant {\r\n        string username;\r\n        string password;\r\n        string participantType;\r\n        address participantAddress;\r\n    }\r\n\r\n    mapping (uint256 => participant) public participants;\r\n\r\n    struct ownership {\r\n        uint256 productId;\r\n        uint256 ownerId;\r\n        uint32 txnTimeStamp;\r\n        address ownerAddress;\r\n    }\r\n\r\n    mapping (uint256 => ownership) public ownerships;\r\n    mapping (uint256 => uint256[]) public productTrack;\r\n\r\n    event TransferOwnership(uint256 productId);\r\n\r\n    function addParticipant(string memory _uname,\r\n                            string memory _pass, \r\n                            string memory _pType,\r\n                            address _pAddress) public returns (uint256) {\r\n\r\n            uint256 userId = participant_id++;\r\n            participants[userId].username = _uname;\r\n            participants[userId].password = _pass;\r\n            participants[userId].participantType = _pType;\r\n            participants[userId].participantAddress = _pAddress;\r\n\r\n            return userId;\r\n    }\r\n\r\n    function getParticipant(uint256 _participantId) public view returns (string memory, address, string memory) {\r\n        return (participants[_participantId].username,\r\n                participants[_participantId].participantAddress,\r\n                participants[_participantId].participantType);\r\n    }\r\n\r\n    modifier onlyOwner(uint256 _productId) {\r\n        require(msg.sender == products[_productId].productOwner, \"\");\r\n        _;\r\n    }\r\n\r\n    function addProduct(uint256 _ownerId,\r\n                        string memory _mNumber,\r\n                        string memory _pNumber, \r\n                        string memory _sNumber,\r\n                        uint32 _cost\r\n                        ) public returns (uint256) {\r\n\r\n            if(keccak256(abi.encodePacked(participants[_ownerId].participantType)) == \r\n            keccak256(\"Manufacturer\")) {\r\n                uint256 prodId = product_id++;\r\n                products[prodId].modelNumber = _mNumber;\r\n                products[prodId].partNumber = _pNumber;\r\n                products[prodId].serialNumber = _sNumber;\r\n                products[prodId].cost = _cost;\r\n                products[prodId].productOwner = participants[_ownerId].participantAddress;\r\n                products[prodId].mfgTimeStamp = uint32(block.timestamp);\r\n                return prodId;\r\n            }\r\n            return 0;\r\n    }  \r\n\r\n    function getProduct(uint256 _productId) public view returns (string memory, string memory,\r\n                 string memory, uint32, address, uint32) {\r\n\r\n            return ( products[_productId].modelNumber,\r\n                    products[_productId].partNumber,\r\n                    products[_productId].serialNumber,\r\n                    products[_productId].cost,\r\n                    products[_productId].productOwner,\r\n                    products[_productId].mfgTimeStamp);\r\n    }\r\n\r\n    function newOwner(uint256 _userId1, uint256 _userId2, uint256 _productId)\r\n        public onlyOwner(_productId) returns (bool) {\r\n            participant memory p1 = participants[_userId1];\r\n            participant memory p2 = participants[_userId2];\r\n            uint256 ownershipId = owner_id++;\r\n\r\n            if(keccak256(abi.encode(p1.participantType)) == keccak256(\"Manufacturer\") \r\n                && keccak256(abi.encode(p2.participantType)) == keccak256(\"Supplier\")) {\r\n                    ownerships[ownershipId].productId = _productId;\r\n                    ownerships[ownershipId].ownerAddress = p2.participantAddress;\r\n                    ownerships[ownershipId].ownerId = _userId2;\r\n                    ownerships[ownershipId].txnTimeStamp = uint32(block.timestamp);\r\n                    products[_productId].productOwner = p2.participantAddress;\r\n                    productTrack[_productId].push(ownershipId);\r\n                    emit TransferOwnership(_productId);\r\n\r\n                    return (true);\r\n                }\r\n            else if(keccak256(abi.encode(p1.participantType)) == keccak256(\"Supplier\")\r\n                && keccak256(abi.encode(p2.participantType)) == keccak256(\"Supplier\")) {\r\n                    ownerships[ownershipId].productId = _productId;\r\n                    ownerships[ownershipId].ownerAddress = p2.participantAddress;\r\n                    ownerships[ownershipId].ownerId = _userId2;\r\n                    ownerships[ownershipId].txnTimeStamp = uint32(block.timestamp);\r\n                    products[_productId].productOwner = p2.participantAddress;\r\n                    productTrack[_productId].push(ownershipId);\r\n                    emit TransferOwnership(_productId);\r\n                    return (true);\r\n                } \r\n            else if(keccak256(abi.encode(p1.participantType)) == keccak256(\"Supplier\")\r\n                && keccak256(abi.encode(p2.participantType)) == keccak256(\"Consumer\")) {\r\n                    ownerships[ownershipId].productId = _productId;\r\n                    ownerships[ownershipId].ownerAddress = p2.participantAddress;\r\n                    ownerships[ownershipId].ownerId = _userId2;\r\n                    ownerships[ownershipId].txnTimeStamp = uint32(block.timestamp);\r\n                    products[_productId].productOwner = p2.participantAddress;\r\n                    productTrack[_productId].push(ownershipId);\r\n                    emit TransferOwnership(_productId);\r\n                    return (true);\r\n                }\r\n            return false;\r\n    }\r\n\r\n    function getProverance (uint256 _productId) external view returns (uint256[] memory) {\r\n        return productTrack[_productId];\r\n    }\r\n\r\n    function getOwnership (uint256 _regId) external view returns (uint256, uint256, address, uint32) {\r\n        ownership memory r = ownerships[_regId];\r\n\r\n        return (r.ownerId, r.productId, r.ownerAddress, r.txnTimeStamp);\r\n    }\r\n\r\n    function AuthenticateParticipant (uint256 _uId,\r\n                                    string memory _uname,\r\n                                    string memory _pass,\r\n                                    string memory _utype ) public view returns (bool) {\r\n\r\n            if(keccak256(abi.encodePacked(participants[_uId].participantType)) == \r\n                keccak256(abi.encodePacked(_utype))) {\r\n                    if(keccak256(abi.encodePacked(participants[_uId].username)) == \r\n                        keccak256(abi.encodePacked(_uname))) {\r\n                            if(keccak256(abi.encodePacked(participants[_uId].password)) == \r\n                                keccak256(abi.encodePacked(_pass))) {\r\n                                    return true;\r\n                                }\r\n                        }\r\n                }    \r\n                return false;              \r\n\r\n    }\r\n\r\n    \r\n}",
  "sourcePath": "D:\\SupplyChainDapp\\contracts\\SupplyChain.sol",
  "compiler": {
    "name": "solc",
    "version": "0.8.17+commit.8df45f5f.Emscripten.clang"
  },
  "schemaVersion": "3.4.11",
  "updatedAt": "2022-12-08T15:26:35.754Z",
  "devdoc": {
    "kind": "dev",
    "methods": {},
    "version": 1
  },
  "userdoc": {
    "kind": "user",
    "methods": {},
    "version": 1
  }
}